:1000000002035E3200000000000000320000000029
:10001000000000320000000000000032000000007C
:100020000000003200000000000000320000C39514
:10003000F02212002E60044002E422740122120019
:100040002E6003500122E42202004BC3EDB50706E7
:10005000ECB50602E422740122AE02E6F70809DEDE
:10006000FA22C0E0741E1470FDD0E0002274C812A1
:10007000007B12007BD5E0F7D8F322C0E0741912A0
:1000800000621470FAD0E022D2A2C2A3A2E492A429
:10009000A2E592A5A2E692A6A2E792A7D2A3C2A346
:1000A000A2E092A4A2E192A5A2E292A6A2E392A764
:1000B000D2A3C2A312006212006222C2A280CBC2EB
:1000C000A2C2A312007BC2A7C2A6D2A5D2A4D2A369
:1000D000C2A312007B12007BD2A3C2A312007BD268
:1000E000A3C2A312007BC2A4D2A3C2A312007B743A
:1000F000281200BB740E1200BB74061200BB2274DF
:10010000801200BB2274C01200BB2274011200BB1B
:1001100012007B74801200BB220022D2903119D2CF
:100120009131197F0AD330900C309109DFF8C291D8
:100130003119C290C3920422C2913119D29031195F
:10014000D2912292913119500C7F0A209107DFFB46
:10015000D290D38013D29031197F0A209007DFFB11
:10016000D291D38003C290C322D2913119D290315F
:10017000197F0A209005DFFBD38007A29192D5C298
:1001800090C3227E08333143400CDEF931694006CA
:10019000A2D55002313892042233FD7E08316940E5
:1001A0000CA2D533DEF7CD13CD3143D29192042288
:1001B000F874A604000000000000000070F500D8EC
:1001C000F02275F00A84C445F022F8C4540F75F08B
:1001D0000AA4F9E8540F2922C4540F24F65002242B
:1001E00007243A22AE02760008DEFB22780C31E4C6
:1001F000200111C2D574082A14F8E630E706B2D5FA
:100200007808516720010F74102A14F8E630E706C9
:10021000B2D5781051677810790875F008EAA4FB18
:10022000E626F6C0D0BA0104D0D0800BD0D0AE0202
:100230001E08E633F6DEFA780CAE02E633F608DE88
:10024000FAAE02780CE6970908DEFA197810401227
:100250007908C3780CAE02E697F60908DEF9781043
:1002600019067908DBBA22AE02D3E6F43400F608A8
:10027000DEF822C0017910120059D001C0017410BB
:100280002A14F8E6C0E0780831E47808760AE92410
:100290000FF9E4F719C00131EC780CD001E62430F5
:1002A000F77810AE02E44608DEFC70E8D0E02001EA
:1002B0000730E704742D19F7A801D0017A10120253
:1002C000C222E6F760040809DAF8E4F722E66006DD
:1002D0001200880880F722EC2EFCED3FFD22C3ECD3
:1002E0009EFCED9FFD22120305EC8EF0A4F8A9F010
:1002F000EC8FF0A429F9ED8EF0A429FDAC0030D5E7
:100300000312032A22C2D5C004C005AC06AD07ED16
:1003100030E709B2D512032AAE04AF05D005D004E8
:10032000ED30E705B2D512032A22EDF4FDECF424FA
:1003300001FC50010D22C3E69401F608E69400F694
:1003400022BA0104797F8010BA020479BF8009BA09
:100350000304798F800279CFE925F00200BB78FF92
:10036000E4F6D8FD7581477520001200BF740C12A9
:1003700000BB740824401200BB780BE883600612AF
:1003800000880880F60203912004081F080420203A
:1003900000741024401200BB780BE8836006120042
:1003A000880880F60203B02004021F020420200007
:1003B000C2B0C2B112010B1200FF780BE8836006D5
:1003C0001200880880F60203D642454C204F544F55
:1003D0004D4154495300120105780BE88360061221
:1003E00000880880F60203F950524F44554B2049CB
:1003F0004E444F4E4553494100780212006D1201A0
:100400000B12011B74D0120183E412018312011B31
:1004100074D1120183D3120199F5F085F0341201E1
:1004200038E5341201CAF534E534B43B0280025099
:100430000302044712011B74D0120183E4120183EA
:10044000E412018312013812011B74D0120183746B
:100450000712018312011B74D1120183D312019977
:10046000F5F085F034120138E5341201CAF534E5AF
:1004700034B4100302048C12011B74D01201837473
:100480000712018374101201831201381207381207
:1004900004E4A292920450030204AAA2B692045069
:1004A000030204A71207C20204921204E4753F017A
:1004B00075F014E53F12003270030204C91210CF28
:1004C000053FE53F60030204B0A29292044003029C
:1004D00004E1A2B6920450030204DE1207C2020431
:1004E000C90204011200FF12064AA29292045003AC
:1004F000020571780BE88360061200880880F60216
:1005000005042C00E532C0E01201D8120088D0E0CA
:100510001201D9120088780BE8836006120088085F
:1005200080F60205272000E533C0E01201D8120052
:1005300088D0E01201D9120088780BE88360061297
:1005400000880880F602054A2000E534C0E0120168
:10055000D8120088D0E01201D9120088780BE88305
:1005600060061200880880F602056E202000020551
:10057000EC780BE88360061200880880F60205829A
:100580002C00E532C0E01201D8120088D0E0120140
:10059000D9120088780BE88360061200880880F67C
:1005A0000205A53A00E533C0E01201D8120088D058
:1005B000E01201D9120088780BE8836006120088E7
:1005C0000880F60205C83A00E534C0E01201D812EE
:1005D0000088D0E01201D9120088780BE883600609
:1005E0001200880880F60205EC202000120105E5C3
:1005F00038C0E01201D8120088D0E01201D91200F0
:1006000088780BE88360061200880880F6020612DC
:100610002F00E539C0E01201D8120088D0E01201A5
:10062000D9120088780BE88360061200880880F6EB
:100630000206372F323000E53AC0E01201D812002E
:1006400088D0E01201D912008822E537B401028077
:100650000302066D780BE88360061200880880F6B6
:1006600002066A4D494E47475500020737E537B441
:100670000202800302068F780BE88360061200886E
:100680000880F602068C53454E494E00020737E5B6
:1006900037B4030280030206B2780BE883600612C7
:1006A00000880880F60206AF53454C4153410002D2
:1006B0000737E537B4040280030206D3780BE883DA
:1006C00060061200880880F60206D05241425500AA
:1006D000020737E537B4050280030206F5780BE818
:1006E0008360061200880880F60206F24B414D49ED
:1006F0005300020737E537B4060280030207187873
:100700000BE88360061200880880F60207154A5538
:100710004D27415400020737E537B4070280030232
:100720000737780BE88360061200880880F6020716
:10073000375341425455002212011B74D0120183D9
:10074000E412018312011B74D1120183C3120199B7
:10075000F5F085F034C3120199F5F085F033C3123A
:100760000199F5F085F032C3120199F5F085F03763
:10077000C3120199F5F085F038C3120199F5F0859F
:10078000F039D3120199F5F085F03A1201382212AE
:10079000011B74D0120183E4120183E5341201833A
:1007A000E533120183E532120183E537120183E557
:1007B00038120183E539120183E53A1201831201EF
:1007C000382212092175440112010B1200FFE54481
:1007D000B4010280030207FE780BE8836006120072
:1007E000880880F60207EF534554204A414D00A285
:1007F000B6920450030207FE120921120981E54452
:10080000B402028003020832780BE883600612000B
:10081000880880F60208235345542054414E474728
:10082000414C00A2B6920450030208321209211270
:100830000DF7E544B403028003020865780BE883F2
:1008400060061200880880F6020856534554204A74
:10085000414457414C00A2B692045003020865126D
:1008600009211215E7E544B40402800302089178D7
:100870000BE88360061200880880F60208854B4565
:100880004C55415200A2B69204500302089102094D
:100890000BA2B7920450030208A2120930054412B9
:1008A000010BA2B5920450030208B4120912784455
:1008B0001612010BE544B4000280030208C475441B
:1008C000040208B4E544B4050280030208D4754468
:1008D000010208C479BF75F00212035874011200B6
:1008E0008879BF75F008120358780BE88360061208
:1008F00000880880F60208FB4F4B0079BF75F00FA7
:1009000012035874021200880207CB12010B12095D
:10091000212274641201B0A2B592044003020912AC
:100920002274C81201B0A2B6920440030209212227
:1009300074641201B0A2B792044003020930227815
:100940000BE88360061200880880F6020955202013
:10095000202020200022780BE883600612008808FF
:1009600080F602096B20202020200022780BE883EB
:1009700060061200880880F60209802020202000EE
:100980002212010B1207381200FF780BE883600671
:100990001200880880F60209A1534554204A414DAF
:1009A00000A2B7920450030209AF1209300537A222
:1009B000B5920450030209BE120912783716E537C2
:1009C000B4000280030209CE7537070209BEE5377D
:1009D000B4080280030209DE7537010209CE120154
:1009E00005A29292045003020A5AE537B40102802C
:1009F000030209FA12093F020A57E537B4020280DE
:100A000003020A0A120956020A57E537B4030280A4
:100A100003020A1A12093F020A57E537B40402809A
:100A200003020A2A12096C020A57E537B40502804C
:100A300003020A3A120956020A57E537B406028041
:100A400003020A4A12093F020A57E537B407028037
:100A500003020A57120956020A5D12064A780BE889
:100A60008360061200880880F6020A6E2C00E532C8
:100A7000C0E01201D8120088D0E01201D91200881B
:100A8000780BE88360061200880880F6020A913A23
:100A900000E533C0E01201D8120088D0E01201D97D
:100AA000120088780BE88360061200880880F6023E
:100AB0000AB43A00E534C0E01201D8120088D0E050
:100AC0001201D9120088780BE883600612008808AA
:100AD00080F6020AD8202000A2B692045003020A2F
:100AE000E7120921020AEA0209A1E5321201CAF558
:100AF00032A2B792045003020AFF1209300532A253
:100B0000B592045003020B0E120912783216E53228
:100B1000B4FF028003020B1E753217020B0EE53282
:100B2000B418028003020B2E753200020B1EE53250
:100B30001201C2F53212010512064A780BE88360F1
:100B4000061200880880F6020B4C2C00A292920438
:100B50005003020B6A780BE8836006120088088055
:100B6000F6020B67202000020B7CE532C0E0120188
:100B7000D8120088D0E01201D9120088780BE883DF
:100B800060061200880880F6020B8D3A00E533C03B
:100B9000E01201D8120088D0E01201D91200887842
:100BA0000BE88360061200880880F6020BB03A005A
:100BB000E534C0E01201D8120088D0E01201D91249
:100BC0000088780BE88360061200880880F6020B24
:100BD000D4202000A2B692045003020BE312092194
:100BE000020BE6020AEAE5331201CAF533A2B79214
:100BF000045003020BFB1209300533A2B5920450D6
:100C000003020C0A120912783316E533B4FF02808E
:100C100003020C1A75333B020C0AE533B43C028024
:100C200003020C2A753300020C1AE5331201C2F5D7
:100C30003312010512064A780BE883600612008819
:100C40000880F6020C482C00E532C0E01201D812F0
:100C50000088D0E01201D9120088780BE883600682
:100C60001200880880F6020C6B3A00A2929204509F
:100C700003020C89780BE88360061200880880F66E
:100C8000020C86202000020C9BE533C0E01201D844
:100C9000120088D0E01201D9120088780BE8836036
:100CA000061200880880F6020CAC3A00E534C0E079
:100CB0001201D8120088D0E01201D9120088780BF6
:100CC000E88360061200880880F6020CD02020001D
:100CD000A2B692045003020CDF120921020CE202B8
:100CE0000BE6E5341201CAF534A2B79204500302B0
:100CF0000CF71209300534A2B592045003020D0618
:100D0000120912783416E534B4FF028003020D167E
:100D100075343B020D06E534B43C028003020D2617
:100D2000753400020D16E5341201C2F534120105C6
:100D300012064A780BE88360061200880880F602E3
:100D40000D442C00E532C0E01201D8120088D0E03A
:100D50001201D9120088780BE88360061200880817
:100D600080F6020D673A00E533C0E01201D81200A8
:100D700088D0E01201D9120088780BE8836006124F
:100D800000880880F6020D8A3A00A292920450036D
:100D9000020DBA780BE88360061200880880F6021C
:100DA0000DA5202000780BE88360061200880880DB
:100DB000F6020DB7202000020DCCE534C0E0120190
:100DC000D8120088D0E01201D9120088780BE8838D
:100DD00060061200880880F6020DDE202000A2B610
:100DE00092045003020DED120921020DF0020CE2F3
:100DF00012078F12010B2212010B1207381200FF8B
:100E0000780BE88360061200880880F6020E1B53F8
:100E100045542054414E4747414C00E5381201CA21
:100E2000F538A2B792045003020E3012093005388B
:100E3000A2B592045003020E3F120912783816E54B
:100E400038B400028003020E4F75381F020E3FE5D2
:100E500038B420028003020E5F753801020E4FE5A0
:100E6000381201C2F538120105A292920450030211
:100E70000E87780BE88360061200880880F6020E61
:100E800084202000020E99E538C0E01201D812003B
:100E900088D0E01201D9120088780BE8836006122E
:100EA00000880880F6020EAA2F00E539C0E0120182
:100EB000D8120088D0E01201D9120088780BE8839C
:100EC00060061200880880F6020ECF2F323000E54F
:100ED0003AC0E01201D8120088D0E01201D9120005
:100EE00088A2B692045003020EF0120921020EF3FA
:100EF000020E1BE5391201CAF539A2B7920450035C
:100F0000020F081209300539A2B592045003020FEE
:100F100017120912783916E539B400028003020F5E
:100F20002775390C020F17E539B40D028003020F43
:100F300037753901020F27E5391201C2F53912015F
:100F400005E538C0E01201D8120088D0E01201D9BE
:100F5000120088780BE88360061200880880F60289
:100F60000F642F00A29292045003020F82780BE8C4
:100F70008360061200880880F6020F7F202000029E
:100F80000F94E539C0E01201D8120088D0E01201B8
:100F9000D9120088780BE88360061200880880F672
:100FA000020FA72F323000E53AC0E01201D812003C
:100FB00088D0E01201D9120088A2B6920450030230
:100FC0000FC8120921020FCB020EF3E53A1201CA33
:100FD000F53AA2B792045003020FE0120930053A25
:100FE000A2B592045003020FEF120912783A16E5E7
:100FF0003AB4FF028003020FFF753A63020FEFE578
:101000003AB46402800302100F753A00020FFFE544
:101010003A1201C2F53A120105E538C0E01201D8D2
:10102000120088D0E01201D9120088780BE88360A2
:10103000061200880880F602103C2F00E539C0E057
:101040001201D8120088D0E01201D9120088780B62
:10105000E88360061200880880F602105F2F00A265
:10106000929204500302107F780BE883600612000E
:10107000880880F602107C20202020000210A3782F
:101080000BE88360061200880880F6021091323067
:1010900000E53AC0E01201D8120088D0E01201D970
:1010A000120088A2B6920450030210B21209210263
:1010B00010B5020FCB12078F12010B22120738ACAA
:1010C000377D007E647F001202E68C408D41221243
:1010D000150E121539121564E532B53C0280030273
:1010E000150DE533B53D02800302150DE53EB40054
:1010F000028002500302150DD2B0D2B1E53EB40118
:1011000002800302110C7580FF0212F9E53EB40261
:1011100002800302111C7580DF0212F9E53EB40360
:1011200002800302112C7580EF0212F9E53EB4042F
:1011300002800302113C7580CF0212F9E53EB4052E
:1011400002800302114C7580F70212F9E53EB406E5
:1011500002800302115C7580D70212F9E53EB407E4
:1011600002800302116C7580E70212F9E53EB408B3
:1011700002800302117C7580C70212F9E53EB409B2
:1011800002800302118C7580FB0212F9E53EB40A5D
:1011900002800302119C7580DB0212F9E53EB40B5C
:1011A0000280030211AC7580EB0212F9E53EB40C2B
:1011B0000280030211BC7580CB0212F9E53EB40D2A
:1011C0000280030211CC7580F30212F9E53EB40EE1
:1011D0000280030211DC7580D30212F9E53EB40FE0
:1011E0000280030211EC7580E30212F9E53EB410AF
:1011F0000280030211FC7580C30212F9E53EB411AE
:1012000002800302120C75807F0212F9E53EB412CF
:1012100002800302121C75805F0212F9E53EB413CE
:1012200002800302122C75806F0212F9E53EB4149D
:1012300002800302123C75804F0212F9E53EB4159C
:1012400002800302124C7580770212F9E53EB41653
:1012500002800302125C7580570212F9E53EB41752
:1012600002800302126C7580670212F9E53EB41821
:1012700002800302127C7580470212F9E53EB41920
:1012800002800302128C75807B0212F9E53EB41ACB
:1012900002800302129C75805B0212F9E53EB41BCA
:1012A0000280030212AC75806B0212F9E53EB41C99
:1012B0000280030212BC75804B0212F9E53EB41D98
:1012C0000280030212CC7580730212F9E53EB41E4F
:1012D0000280030212DC7580530212F9E53EB41F4E
:1012E0000280030212EC7580630212F9E53EB4201D
:1012F0000280030212F9758043C28674FA1201B0AB
:10130000D28612010B780BE88360061200880880F1
:10131000F602131C414C4152414D2000783F7A01A6
:101320007921D201120273C20178211202CD780B09
:10133000E88360061200880880F602134420414BBF
:1013400054494600120105780BE8836006120088B4
:101350000880F602135C4C4147552000783E7A0124
:101360007921D201120273C20178211202CD75F0E7
:1013700001E53E12003E60030213807401021381F6
:10138000E4C0E0853EF0741012003E600302139545
:101390007401021396E4D0F055F0B4010280030208
:1013A00013AB7542147543000214C975F011E53E84
:1013B00012003E60030213BD74010213BEE4C0E0DC
:1013C000853EF0741212003E60030213D2740102D3
:1013D00013D3E4D0F055F0B4010280030213E87592
:1013E000421E7543000214C9E53EB4130280030295
:1013F00013FB7542737543000214C9E53EB4140231
:10140000800302140E7542E17543000214C9E53EE3
:10141000B4150280030214217542F57543000214CD
:10142000C9E53EB4160280030214347542AA75431E
:10143000000214C9E53EB417028003021447754246
:10144000CD7543000214C9E53EB4180280030214AE
:101450005A7542417543000214C9E53EB419028031
:101460000302146D7542C87543000214C9E53EB409
:101470001A0280030214807542F57543000214C9F4
:10148000E53EB41B02800302149375429B75430032
:101490000214C9E53EB41C0280030214A67542E1A1
:1014A0007543000214C9E53EB41D0280030214B95D
:1014B0007542B97543000214C9E53EB41E028003AB
:1014C0000214C9754209754301AC42AD437E007FE9
:1014D0000012004870030214F9A292920440030221
:1014E00014E50214D9A292920450030214F10214DA
:1014F000E578421203360214C9C2B0C2B1E533B571
:101500003D02800302150D1207380214FD2212104D
:10151000BCAC40AD417E1E7F001202DE8C408D418E
:10152000AC40AD41AE3F7F001202D78C408D4112DE
:10153000158C853B3C120738221210BCAC40AD41E3
:101540007E3C7F001202DE8C408D41AC40AD41AE4E
:101550003F7F001202D78C408D4112158C853B3D98
:10156000120738221210BCAC40AD417E5A7F0012E7
:1015700002DE8C408D41AC40AD41AE3F7F00120297
:10158000D78C408D4112158C853B3E22784008E671
:10159000F535E540F53612011B74A0120183E535DF
:1015A000120183E53612018312011B74A11201831B
:1015B000D3120199F5F085F03B12013822784008EA
:1015C000E6F535E540F53612011B74A0120183E5FE
:1015D00035120183E536120183E53B1201831201C6
:1015E00038740A1201B02275450175460112010BCB
:1015F0001200FFE545B408028003021629780BE8C3
:101600008360061200880880F60216144B454D428E
:10161000414C4900A2B69204500302162612092139
:1016200012010B0217B902173F780BE8836006120C
:1016300000880880F60216404A414457414C200079
:10164000E545B401028003021663780BE883600667
:101650001200880880F60216604D494E4747550033
:1016600002172DE545B402028003021685780BE8C7
:101670008360061200880880F602168253454E49A0
:101680004E0002172DE545B4030280030216A87828
:101690000BE88360061200880880F60216A5534501
:1016A0004C4153410002172DE545B404028003026A
:1016B00016C9780BE88360061200880880F60216C7
:1016C000C6524142550002172DE545B4050280037C
:1016D0000216EB780BE88360061200880880F60299
:1016E00016E84B414D49530002172DE545B406025B
:1016F000800302170E780BE88360061200880880CA
:10170000F602170B4A554D2741540002172DE545A7
:10171000B40702800302172D780BE88360061200DD
:10172000880880F602172D534142545500A2B69204
:1017300004500302173F12092112010B1217BA7944
:10174000BF75F002120358740112008879BF75F05A
:1017500008120358780BE88360061200880880F6A8
:101760000217664F4B0079BF75F00F1203587402D1
:10177000120088E545B4000280030217837545080E
:10178000021773E545B409028003021793754501FA
:10179000021783A2B7920450030217A4120930055E
:1017A0004512010BA2B5920450030217B61209129A
:1017B00078451612010B0215F022754601121DAD77
:1017C000121DE1121E151200FFE546B4150280033A
:1017D0000217FF780BE88360061200880880F60283
:1017E00017EA4B454D42414C4900A2B692045003C2
:1017F0000217FC12092112010B0219CF02190AA2C9
:101800009292045003021824780BE88360061200B9
:10181000880880F602182120202020202020202067
:101820000002184D780BE88360061200880880F6E5
:1018300002183B414C4152414D200078467A0179D3
:1018400021D201120273C20178211202CD120105C8
:10185000E53CC0E01201D8120088D0E01201D91294
:101860000088780BE88360061200880880F602186A
:10187000733A00E53DC0E01201D8120088D0E012B2
:1018800001D9120088780BE883600612008808806E
:10189000F6021897202000E53EB4000280030218EB
:1018A000BC780BE88360061200880880F60218B93D
:1018B000284B4F534F4E4729000218F5780BE88309
:1018C00060061200880880F60218D14C4147552066
:1018D00000783E7A017921D201120273C201782187
:1018E0001202CD780BE88360061200880880F602A9
:1018F00018F5202000A2B69204500302190A12091A
:101900002112010B1219D012010BE546B40002801E
:101910000302191D75461512010B02190AE546B49A
:1019200016028003021936754601121DAD121DE123
:10193000121E1502191DA2B7920450030219B1120A
:1019400009300546121DADE53C1201CAF53CE53CE7
:10195000B4170280025003021966753C00121E493A
:10196000121DAD02196DE53C1201C2F53C121DE1DC
:10197000E53D1201CAF53DE53DB43B02800250034E
:1019800002198F753D00121E7D121DE1021996E5A8
:101990003D1201C2F53D121E15E53EB41E02800245
:1019A00050030219AE753E00121EB1121E1512012F
:1019B0000BA2B5920450030219CC120912784616F4
:1019C000121DAD121DE1121E1512010B0217C622C7
:1019D000121DAD121DE1121E151200FF780BE883D7
:1019E00060061200880880F60219F3414C4152410A
:1019F0004D200078467A017921D201120273C2018A
:101A000078211202CD120105A29292045003021A0B
:101A100026E53CC0E01201D8120088D0E01201D9BE
:101A2000120088021A38780BE883600612008808D2
:101A300080F6021A38202000780BE8836006120036
:101A4000880880F6021A493A00E53DC0E01201D844
:101A5000120088D0E01201D9120088780BE8836068
:101A6000061200880880F6021A6D202000E53EB4B8
:101A700000028003021A92780BE883600612008845
:101A80000880F6021A8F284B4F534F4E4729000209
:101A90001AB9780BE88360061200880880F6021AEB
:101AA000A74C4147552000783E7A017921D2011296
:101AB0000273C20178211202CDE53C1201CAF53C45
:101AC000A2B792045003021AD1120930053C120148
:101AD0000BA2B592045003021AE3120912783C16C5
:101AE00012010BE53CB418028003021AF3753C00A6
:101AF000021AE3E53CB4FF028003021B03753C17A6
:101B0000021AF3E53C1201C2F53CA2B6920450035E
:101B1000021B1F121E4912092112010B021B220275
:101B200019D91200FF780BE883600612008808803C
:101B3000F6021B3C414C4152414D200078467A014F
:101B40007921D201120273C20178211202CD120151
:101B500005E53CC0E01201D8120088D0E01201D99E
:101B6000120088780BE88360061200880880F6026D
:101B70001B743A00A29292045003021B92780BE865
:101B80008360061200880880F6021B8F2020000266
:101B90001BA4E53DC0E01201D8120088D0E012017C
:101BA000D9120088780BE88360061200880880F656
:101BB000021BB6202000E53EB400028003021BDBBE
:101BC000780BE88360061200880880F6021BD8288C
:101BD0004B4F534F4E472900021C02780BE883609D
:101BE000061200880880F6021BF04C414755200081
:101BF000783E7A017921D201120273C20178211252
:101C000002CDE53D1201CAF53DA2B7920450030290
:101C10001C1A120930053D12010BA2B592045003A3
:101C2000021C2C120912783D1612010BE53DB43C42
:101C3000028003021C3C753D00021C2CE53DB4FFF4
:101C4000028003021C4C753D3B021C3CE53D120129
:101C5000C2F53DA2B692045003021C68121E7D120A
:101C6000092112010B021C6B021B221200FF780BD0
:101C7000E88360061200880880F6021C85414C410A
:101C800052414D200078467A017921D20112027327
:101C9000C20178211202CD120105E53CC0E012011B
:101CA000D8120088D0E01201D9120088780BE8839E
:101CB00060061200880880F6021CBD3A00E53DC0AF
:101CC000E01201D8120088D0E01201D91200887801
:101CD0000BE88360061200880880F6021CE12020D1
:101CE00000A29292045003021D39E53EB400028026
:101CF00003021D0F780BE88360061200880880F647
:101D0000021D0C284B4F534F4E472900021D3678B9
:101D10000BE88360061200880880F6021D244C41FF
:101D200047552000783E7A017921D201120273C210
:101D30000178211202CD021D51780BE88360061252
:101D400000880880F6021D5120202020202020201D
:101D500000A2B792045003021D62120930053E1220
:101D6000010BA2B592045003021D74120912783EB1
:101D70001612010BE53EB41F028003021D84753E5E
:101D800000021D74E53EB4FF028003021D94753EFF
:101D90001E021D84A2B692045003021DA9121EB198
:101DA00012092112010B021DAC021C6B22AC457DF5
:101DB000007E647F001202E68C408D41AC40AD4154
:101DC0007E1E7F001202DE8C408D41AC40AD41AEE4
:101DD000467F001202D78C408D4112158C853B3C0A
:101DE00022AC457D007E647F001202E68C408D416E
:101DF000AC40AD417E3C7F001202DE8C408D41AC98
:101E000040AD41AE467F001202D78C408D41121585
:101E10008C853B3D22AC457D007E647F001202E64E
:101E20008C408D41AC40AD417E5A7F001202DE8C69
:101E3000408D41AC40AD41AE467F001202D78C4090
:101E40008D4112158C853B3E22AC457D007E647F22
:101E5000001202E68C408D41AC40AD417E1E7F00F9
:101E60001202DE8C408D41AC40AD41AE467F001287
:101E700002D78C408D41853C3B1215BD22AC457D7F
:101E8000007E647F001202E68C408D41AC40AD4183
:101E90007E3C7F001202DE8C408D41AC40AD41AEF5
:101EA000467F001202D78C408D41853D3B1215BD07
:101EB00022AC457D007E647F001202E68C408D419D
:101EC000AC40AD417E5A7F001202DE8C408D41ACA9
:101ED00040AD41AE467F001202D78C408D41853E19
:101EE0003B1215BD220000000000000000000000B1
:00000001FF
