:100000000C9434000C9451000C9451000C94510049
:100010000C9451000C9451000C9451000C9451001C
:100020000C9451000C9451000C9451000C9451000C
:100030000C9451000C9451000C9451000C945100FC
:100040000C9451000C9451000C9451000C945100EC
:100050000C9451000C9451000C9451000C945100DC
:100060000C9451000C94510011241FBECFEFD8E026
:10007000DEBFCDBF11E0A0E0B1E0ECECF3E002C0E8
:1000800005900D92AA30B107D9F711E0AAE0B1E0CE
:1000900001C01D92A531B107E1F70E948F010C94B8
:1000A000E4010C9400001092C50087E68093C40020
:1000B00088E18093C10086E08093C200089580911A
:1000C000C00087FFFCCF8091C6000895982F8091D3
:1000D000C00085FFFCCF9093C6000895FC0107C0C7
:1000E0008091C00085FFFCCF9093C600319690812F
:1000F0009923B1F7089580930A018093040108952C
:10010000BC0140E050E021E030E0FB01E20FF31FD2
:100110008081480F511D2F5F3F4F27303105A9F7D0
:1001200022273327241B350BC9010895E1E0F1E0B4
:1001300020E030E08191280F311D81E0E730F807A1
:10014000C9F788279927821B930B90838183089591
:10015000E0E0F1E090818091C00085FFFCCF9093BA
:10016000C600319681E0EA30F807A1F70895809340
:1001700003017093050160930601E1E0F1E020E0E6
:1001800030E08191280F311D81E0E730F807C9F791
:1001900088279927821B930B9083818337979081BF
:1001A0008091C00085FFFCCF9093C600319681E01E
:1001B000EA30F807A1F70895809303011092050132
:1001C00010920601E1E0F1E020E030E08191280F9B
:1001D000311D81E0E730F807C9F788279927821B8E
:1001E000930B90838183379790818091C00085FF26
:1001F000FCCF9093C600319681E0EA30F807A1F772
:100200000895BC0183E00E94B700089583E00E9436
:10021000DC00089581E00E94DC00089582E00E94E5
:10022000DC000895BC0186E00E94B7000895BC017F
:1002300087E00E94B7000895BC0189E00E94B700E2
:1002400008958AE00E94DC0008958CE00E94DC00A2
:1002500008958DE00E94DC0008958EE00E94DC008D
:10026000089586E10E94DC000895BC0182E10E94AD
:10027000B700089582E40E94DC00089583E40E94A0
:10028000DC00089587E40E94DC00089588E40E9461
:10029000DC00089589E40E94DC0008958CE40E944B
:1002A000DC0008958BE40E94DC0008958DE40E9438
:1002B000DC00089561E0682789E170E00E94B700E2
:1002C00008950E94350180E49CE90197F1F781E0EF
:1002D0000E945A01089561E068278AE170E00E9457
:1002E000B700089588E10E94DC0008959C01AC01EC
:1002F00093E0440F551F9A95E1F7220F331F420FE9
:10030000531F20E931E007C088EE93E0F9013197EF
:10031000F1F70197D9F741505040B1F708951F9375
:10032000CF93DF931092C50087E68093C40088E1E5
:100330008093C10086E08093C20080E395E720E9C6
:1003400031E0F9013197F1F70197D9F70E942501C2
:1003500088E893E120E931E0F9013197F1F701975D
:10036000D9F781E090E00E941C0188E893E120E940
:1003700031E0F9013197F1F70197D9F784E190E085
:100380000E94120188E893E120E931E0F9013197F8
:10039000F1F70197D9F711E0C0E9D1E0812F90E0A2
:1003A0000E94350124E630E007C088EE93E0FE01AC
:1003B0003197F1F70197D9F721503040B1F71F5F1E
:0C03C0001A3160F311E0EACFF894FFCF8F
:0A03CC007EFF06000000000000EFB5
:00000001FF
