:0400000002001932AF
:03000B000213DB02
:030013000213E1F4
:0300720002001673
:0300160002146B66
:20007500AE82AF83EE4F60107D648D04EC14FD70F91EBEFF011F80EC22002212008ED281E6
:2000950012008EC281221081028000D280D28112008EC28012008EC281221081028000C2D2
:2000B5008012008ED28112008ED28022AF827E00EF339280C007C006120090D006D007EFF6
:2000D5002FFF0EBE080040E8D28012008ED28112008EA280C28112008E227F007E00C00711
:2000F500C00612008ED28112008ED006D007A2809200EF2FFDA200E433FC4DFFC2810EBE06
:20011500080040DA8F8222C28012008E120090D28022D28012008E120090D28122AF82BF84
:20013500011B754021753FC9753E21753D61753CFF753BFF753AFF7539FF0203A4BF021B15
:200155007540FF753F85753E03753D19753C7D753B19753AFF7539FF0203A4BF031B75408F
:2001750085753F03753ED3753D21753C85753B21753AFF7539FF0203A4BF041B7540FF75C3
:200195003FFF753E9B753D21753CC1753B51753AFF7539FF0203A4BF051B754089753F2182
:2001B500753E1B753D1D753C7D753B85753AFF7539FF0203A4BF061B754071753F51753E68
:2001D5001B753D1D753C21753BC3753AFF7539FF0203A4BF071B754085753F21753EC175FE
:2001F5003DC3753C51753BFF753AFF7539FF0203A4BF081B7540FF753FFF753EC1753D03C3
:20021500753C03753B0B753AFF7539FF0203A4BF091B7540FF753FFF753EFF753DFF753CF8
:20023500FF753BFF753A117539190203A4BF0A1B7540FF753FFF753EFF753DFF753CFF75F8
:200255003B11753A8B75398B0203A4BF0B1B7540FF753F7D753E1B753D1D753C85753B458F
:20027500753A217539FF0203A4BF0C1B7540FF753FFF753E85753D51753CC1753B51753A99
:20029500C97539FF0203A4BF0D1B7540FF753FFF753E61753D51753CC9753B51753A9B758B
:2002B50039FF0203A4BF0E1B7540FF753FFF753E21753D85753CC9753B21753A9B7539FFAC
:2002D5000203A4BF0F1B75401B753F1D753E21753D05753CC9753B9B753A7D7539C10203E6
:2002F500A4BF101B7540FF753FFF753E7D753D85753C45753B21753AFF7539FF0203A4BF03
:20031500111B754085753FC3753E21753D19753CC1753B45753AFF7539FF0203A4BF121AF6
:200335007540FF753F7D753E0D753D11753C1B753B1D753A217539C98055BF141A7540C326
:20035500753F21753E1B753D1D753CC1753B21753AC97539FF8038BF151A754089753F51C5
:20037500753E9B753D21753C19753B05753AFF7539FF801BBFAA187540FF753FFF753EFF38
:20039500753DFF753CFF753BFF753AFF7539FF22AF82C2A07E00BF80004004D2A18002C270
:2003B500A1EF23FFD2A2C2A20EBE080040E822AF82C2967E00BF80004004D2958002C295B6
:2003D500EF23FFD297C2970EBE080040E822AF82C2927E00BF80004004D2918002C291EF6A
:2003F50023FFD290C2900EBE080040E82212009B7582D01200C17582001200C175820012DA
:2004150000C18522821200C18523821200C18524821200C18525821200C18526821200C110
:200435008528821200C17582101200C11200AF90002812007512009B7582D01200C175828D
:200455000E1200C17582001200C11200AF9000281200752212009B7582D01200C17582007C
:200475001200C112009B7582D11200C11200EFE582F52112011C1200EFE582F52212011CF1
:200495001200EFE582F52312011C1200EFE582F52412011C1200EFE582F52512011C120025
:2004B500EFE582F52612011C1200EFE582F5281200AF22AE82AD83C006C00512009B758290
:2004D500A01200C1D0058D821200C1D0068E821200C112009B7582A11200C11200EFAF82DA
:2004F500C0071201271200AF900028120075D0078F8222AF82AE60AC5FC007C006C004122F
:20051500009B7582A01200C1D004D0068E82C0041200C1D0048C821200C1D0078F821200C1
:20053500C11200AF90002812007522E582FFC4540F75F00AA4FE740F5F2EF58222AF8275D6
:20055500F00AEF84C454F0FE75F00AEF84E5F02EF58222E5822421F98782C001120540E5EA
:2005750082D00175F03CA4FEAFF0E5612421F88682C007C006C001C000120540AD82D00042
:20059500D001D006D0077C00ED2EFEEC3FFFAC5B7D00EC2EFEED3FFF75103C8D118E828F44
:2005B50083C007C006C001C0001215B2120552E582D000D001D006D007F775103C75110060
:2005D5008E828F83C0001215DB120552E582D000F622E5822421F98782C001120540E5823D
:2005F500D00175F03CA4FEAFF0E5622421F88682C007C006C001C000120540AD82D000D073
:2006150001D006D0077C00ED2EFEEC3FFFAC5C7D00EEC39CFEEF9DFF75103C8D118E828FFF
:2006350083C007C006C001C0001215B2120552E582D000D001D006D007F775103C751100DF
:200655008E828F83C0001215DB120552E582D000F6227E007F00E526FD24ED50030206EF89
:20067500ED240A83F582ED241783F583E473EFA9AFB5BBC1C7CDD3D9EFEFEFEFEFEFDFE5C0
:20069500EB060606060606060606060606060606060606067E007F0080407EF47F01803A7F
:2006B5007EE87F0380347EDC7F05802E7ED07F0780287EC47F0980227EB87F0B801C7EAC8F
:2006D5007F0D80167EA07F0F80107E947F11800A7E887F1380047E7C7F15852582C007C01E
:2006F50006120540AD82D006D0077C00ED2EFEEC3FFF8E828F83C007C0061204C8E582D029
:2007150006D007F52974282EFEE43FFF8E828F83C007C0061204C8E582D006D007F52A74AB
:20073500282EFEE43FFF8E828F83C007C0061204C8E582D006D007F52B74282EFEE43FFF83
:200755008E828F83C007C0061204C8E582D006D007F52C74282EFEE43FFF8E828F83C007EF
:20077500C0061204C8E582D006D007F52D74282EFEE43FFF8E828F83C007C0061204C8E52E
:2007950082D006D007F52E74282EFEE43FFF8E828F83C007C0061204C8E582D006D007F572
:2007B5002F74282EFEE43FFF8E828F83C007C0061204C8E582D006D007F53074282EFEE499
:2007D5003FFF8E828F83C007C0061204C8E582D006D007F53174282EFEE43FFF8E828F83F3
:2007F500C007C0061204C8E582D006D007F53274282EFEE43FFF8E828F83C007C00612048F
:20081500C8E582D006D007F53374282EFEE43FFF8E828F831204C8E582F53490177B12040D
:20083500C812054085825B90177C1204C812054085825C75610975820812056875620975B5
:2008550082081205E775610B75820A12056875620B75820A1205E775610D75820C12056854
:2008750075620D75820C1205E775610F75820E12056875620F75820E1205E775611175824E
:20089500101205687562117582101205E77561137582121205687562137582121205E790D5
:2008B50017721204C88582599017731204C885825A2220820874F75536F5368006740845CF
:2008D50036F5368538821203A58537821203A58536821203A58535821203A5D2A07F807ED5
:2008F500008F82C007C0061203C4D00674042E2435F98782C0061203C4D006D0078F82C078
:2009150007C0061203E3D006740C2E2435F98782C0061203E3D006D0078F82C007C0061203
:2009350003E3D00674142E2435F98782C0061203E3D006D0078F82C007C0061203E3D006FE
:20095500741C2E2435F98782C0061203E3D006D007EF03FFD296D292900001C007C0061211
:200975000075D006D0070EBE080050030208F67582001203C47582001203C475820012036D
:20099500E37582001203E37582001203E37582001203E37582001203E37582001203E3D2E2
:2009B50096D29222740F552290162C93FF8F35E522C4540F90162C93FF8F36740F55239002
:2009D500162C93FF8F37E523C4540F90162C93FF8F38E525C4540F90163793FE8E40740F1E
:2009F500552590163793FE8E3FE526C4540F90163793FE8E3E740F552690163793FE8E3D8A
:200A1500901639E493FE8E3C901637E493FE8E3BE528C4540F90163793FE8E3A740F55281E
:200A350090163793FE8E3990162CE493FEEFB50608901636E493FF8F38901637E493FFB552
:200A55003E08901641E493FF8F3E901637E493FFB54008901641E493FF8F40740F552A9003
:200A7500164293FF8F51E52AC4540F90164293FF8F52740F552990164293FF8F53901641C2
:200A9500E493FF8F54740F552C90164293FF8F55E52CC4540F90164293FF8F56740F552BEC
:200AB50090164293FF8F57901641E493FF8F58740F552E90164293FF8F49E52EC4540F905B
:200AD500164293FF8F4A740F552D90164293FF8F4BE52DC4540F90164293FF8F4C740F557F
:200AF5003090164293FF8F4DE530C4540F90164293FF8F4E740F552F90164293FF8F4FE584
:200B15002FC4540F90164293FF8F50740F553290164293FF8F41E532C4540F90164293FF05
:200B35008F42740F553190164293FF8F43E531C4540F90164293FF8F44740F5534901642FC
:200B550093FF8F45E534C4540F90164293FF8F46740F553390164293FF8F47E533C4540FF1
:200B750090164293FF8F4822D2B7900064120075C2B720860AD28690009612007580F32226
:200B9500D2B7900064120075C2B720870AD28790009612007580F322D2B790006412007573
:200BB500C2B720850AD28590009612007580F322AF82E4BF030104FE208603020CF4208733
:200BD50061EF2421F98782C007C006C001120540AD82D001D006D007A7050DA705C3E564A6
:200BF5009D5002A7638782C007C006C001120552E582D001D006D007F7EE6010852482C002
:200C150007C006120132D006D007800BC007C0061209B9D006D007C007C006120B95D00652
:200C3500D007208566EF2421F98782C007C006C001120540AD82D001D006D007A7051DA7C5
:200C5500058704C3ED95634003BCFF02A7648782C007C006C001120552E582D001D006D09E
:200C750007F7EE6010852482C007C006120132D006D007800BC007C0061209B9D006D007C0
:200C9500C007C006120BADD006D007EF2421F9870530820277AAC007C006C005C00112097F
:200CB500B9D001D005D006D007EE601B30820277AA852482C007C006C005C001120132D082
:200CD50001D005D006D007C007C006C005C0011208C7D001D005D006D007A705020BCD129D
:200CF5000B7D22AF827E00208603020DCE20873CEF2421F98782C007C001120540AD82D009
:200D150001D007A7050DA705C3E5669D5002A7658782C007C001120552E582D001F7120934
:200D3500B9852482120132120B95D007208541EF2421F98782C007C001120540AD82D001F1
:200D5500D007A7051DA7058704C3ED95654003BCFF02A7668782C007C001120552E582D0BF
:200D750001F71209B9852482120132120BADD007EF2421F98706C007C006C0011209B98520
:200D95002482120132D001D006D00730821777AAC007C006C0011209B97582AA120132D013
:200DB50001D006D007C007C006C0011208C7D001D006D007A706020CFCC006120B7DD006D6
:200DD5008E8222208651120B7D756300756417758202120BC575630075643B758201120B97
:200DF500C575630175641F758204120BC575630175640C758205120BC57563007564637546
:200E15008207120BC5756301756407758203120BC5120402120667308703020FC9120B95E0
:200E35007523AA7524089017711204C8E582F522756500756663758201120CF8AF82755F1B
:200E5500717560178F8212050875240C9017741204C8E582F52275650075666375820112B2
:200E75000CF8AF82755F747560178F8212050875240D9017751204C8E582F5227565007557
:200E95006663758201120CF8AF82755F757560178F8212050875240E9017761204C8E582C7
:200EB500F522756500756663758201120CF8AF82755F767560178F8212050875240F9017FA
:200ED500771204C8E582F522756500756663758201120CF8AF82755F777560178F82120574
:200EF500087524109017781204C8E582F522756500756663758201120CF8AF82755F787599
:200F150060178F821205087524119017791204C8E582F522756500756663758201120CF8C9
:200F3500AF82755F797560178F821205087522007524099017721204C8E582F52375650079
:200F5500756617758202120CF8AF82755F727560178F8212050875240A9017731204C8E568
:200F750082F523756500756617758202120CF8AF82755F737560178F821205087523AA759C
:200F9500240690177A1204C8E582F522756500756663758201120CF8AF82755F7A75601704
:200FB5008F821205081204699000281200751206671209B93085030210557F003085030283
:200FD5001055D285900096C007120075D0070FBFFFEA120BAD7523AA75241490177B12044D
:200FF500C8E582F522756500756663758201120CF8AF82755F7B7560178F8212050875243B
:201015001590177C1204C8E582F522756500756663758201120CF8AF82755F7C7560178F05
:2010350082C0071205089000321200751204699000321200751206671209B9D007020FD116
:2010550022D2B7900190120075C2B7900190120075D2B7900190120075C2B790019012002A
:2010750075D2B7900190120075C2B7227EF07F00E523FDB52962E52AB5225DC2AF1209B960
:2010950075240B7C0CBC1C004005EC24E0500BEC2435F990164CE493FBF70CBC240040E5FD
:2010B5007C00BC0A0092B720820F852482C0041201321208C7D00480EEC0041208C7D0040F
:2010D50030820C852482C004120132D00480F10CBC3C0040CD0213D8EDB52B33E52CB522DE
:2010F5002EC2AFC007C0061209B975240C9017741204C8AB82D006D0077C0CEC2435F9900D
:20111500164CE493FAF70CBC200040EF021224EDB52D3DE52EB52238C2AFC007C00612095A
:20113500B975240D9017751204C8AB82D006D0077C0CBC14004005EC24E8500BEC2435F939
:2011550090164CE493FAF70CBC240040E5021224EDB52F3DE530B52238C2AFC007C0061295
:2011750009B975240E9017761204C8AB82D006D0077C0CBC18004005EC24E4500BEC2435E7
:20119500F990164CE493FAF70CBC240040E5021224EDB53132E532B5222DC2AFC007C00680
:2011B5001209B975240F9017771204C8AB82D006D0077C10EC2435F990164CE493FAF70C98
:2011D500BC240040EF8048EDB5330280030213D8E534B5220280030213D8C2AFC007C0067C
:2011F5001209B97524109017781204C8AB82D006D0077C0CBC10004005EC24EC500BEC2486
:2012150035F990164CE493FDF70CBC240040E5901771C007C006C0031204C8120540AD8251
:20123500D003D006D0072082FDEE4F606230845F1EBEFF011FED6003D2B71D20821E308403
:201255001B852482C007C006C005C0031201321208C7D003D005D006D00780DFC007C006B7
:20127500C005C0031208C7D003D005D006D0073082B73084B4C2B7852482C007C006C005D4
:20129500C003120132D003D005D006D00780E0C003120469D0037406B52403021359D2B71A
:2012B5009001F4C003120075D003C2B77524128B82120540AB82EB60631B7D3B8D82C0056D
:2012D500C003120552E582D003F5228B82C003120552E582F5231209B9D003D0057C0CECD4
:2012F5002435F990164CE493FAF70CBC240040EF2082FD208213852482C005C003120132C6
:201315001208C7D003D00580EAC005C0031208C7D003D0051DBD3C0040A2809AD2B7900386
:2013350020120075C2B7900320120075D2B7900320120075C2B7900320120075D2B7900BA4
:20135500B8120075C2B77406B5241190177A1204C8E58275F03CA4FEAFF0800F9017791253
:2013750004C8E58275F03CA4FEAFF07C00EC2435F9901636E493FDF70CBC040040EF7C04C7
:20139500EC2435F9901641E493FDF70CBC0C0040EF7C0CEC2435F990164CE493FDF70CBCBA
:2013B500240040EFC007C0061208C7D006D007EE4F600D2082FD3082FD1EBEFF011F80EF48
:2013D500120667D2AF22C28C755E0032C0E0C0D0C28CC2AF055E7402B55E1274F6258C502B
:2013F50006E58C24F45003755E00755D00E55E24FD502874F6255E4022E58C24FA500874CB
:20141500F8258C4002055D74FC258C5006E58C24F85003755E00E55D23F55DE55E24F650DC
:2014350026755E007408B55D0280057448B55D02C2877406B55D02C2867488B55D02800505
:2014550074C8B55D02C285758C00758A00D28CD2AFD0D0D0E032C2011209B91208C71210E5
:2014750056758800D28C758929D2BAD28AD2AAD2A9D2AF12009B7582D01200C175820E12C1
:2014950000C17582001200C11200AF900028120075120469120667120469121081E5237014
:2014B5000DE52270099001F41200751206677F0020820CC0071208C7120DD8D00780F1C02B
:2014D500071209B9D007C3E559955A5027E523FE7008C3E5599E4002C201C3EE95594007D6
:2014F500E55A9E4002D201C3EE955A4007EE24DC4002C201C3E55A95595027E523FE700826
:20151500C3E55A9E4002D201C3EE955A4007E5599E4002C201C3EE95594007EE24DC400223
:20153500D201E55AB55902D201200146901636E493FE8E35901636E493FE8E36901636E451
:2015550093FE8E37901636E493FE8E387F04EF2435F9901636E493FEF70FBF0C0040EF7F75
:201575000CEF2435F990164CE493FEF70FBF240040EFBF0500500A852482C007120132D065
:1D1595000730820CC0071208C7120DD8D00780F10FBF0A0050030214C50214AC22A3
:20162C0088EE494C2E1C18CE080CFF117D23254D85813D0105FF117D23254D85813D010579
:01164C00FF9E
:2015B2007A10E4FBFCE58225E0F582E58333F583EB33FBEC33FCEB9510F5F0EC951140063D
:0915D200FCABF0438201DADD22DA
:06004800E478FFF6D8FD8C
:200026007900E94400601B7A0090164D780175A000E493F2A308B8000205A0D9F4DAF2751D
:02004600A0FF19
:2015DB00E510451160467A01E51025E0F510E511334012F511E5829510E583951140030A9D
:2015FB0080E6C3E51113F511E51013F510C3E5829510F5F0E58395114005F58385F082C352
:0D161B00E51113F511E51013F510DAE122C9
:20004E007800E84400600A790175A000E4F309D8FC7800E84400600C7900900001E4F0A3B0
:04006E00D8FCD9FAE7
:0D001900758166121628E58260030200164C
:0416280075820022A5
:00000001FF
