:1000000002035E3200000000000000320000000029
:10001000000000320000000000000032000000007C
:100020000000003200000000000000320000C39514
:10003000F02212002E60044002E422740122120019
:100040002E6003500122E42202004BC3EDB50706E7
:10005000ECB50602E422740122AE02E6F70809DEDE
:10006000FA22C0E0741E1470FDD0E0002274C812A1
:10007000007B12007BD5E0F7D8F322C0E0741912A0
:1000800000621470FAD0E022D290C291A2E492945D
:10009000A2E59295A2E69296A2E79297D291C2919A
:1000A000A2E09294A2E19295A2E29296A2E39297A4
:1000B000D291C29112006212006222C29080CBC221
:1000C00090C29112007BC297C296D295D294D291DF
:1000D000C29112007B12007BD291C29112007BD29E
:1000E00091C29112007BC294D291C29112007B7492
:1000F000281200BB740E1200BB74061200BB2274DF
:10010000801200BB2274C01200BB2274011200BB1B
:1001100012007B74801200BB220022D2A73119D2B8
:10012000A631197F0AD330A70C30A609DFF8C2A682
:100130003119C2A7C3920422C2A63119D2A731191C
:10014000D2A62292A63119500C7F0A20A607DFFB07
:10015000D2A7D38013D2A731197F0A20A707DFFBCC
:10016000D2A6D38003C2A7C322D2A63119D2A73107
:10017000197F0A20A705DFFBD38007A2A692D5C26C
:10018000A7C3227E08333143400CDEF931694006B3
:10019000A2D55002313892042233FD7E08316940E5
:1001A0000CA2D533DEF7CD13CD3143D2A692042273
:1001B000F874A604000000000000000070F500D8EC
:1001C000F02275F00A84C445F022F8C4540F75F08B
:1001D0000AA4F9E8540F2922C4540F24F65002242B
:1001E00007243A22AE02760008DEFB22780C31E4C6
:1001F000200111C2D574082A14F8E630E706B2D5FA
:100200007808516720010F74102A14F8E630E706C9
:10021000B2D5781051677810790875F008EAA4FB18
:10022000E626F6C0D0BA0104D0D0800BD0D0AE0202
:100230001E08E633F6DEFA780CAE02E633F608DE88
:10024000FAAE02780CE6970908DEFA197810401227
:100250007908C3780CAE02E697F60908DEF9781043
:1002600019067908DBBA22AE02D3E6F43400F608A8
:10027000DEF822C0017910120059D001C0017410BB
:100280002A14F8E6C0E0780831E47808760AE92410
:100290000FF9E4F719C00131EC780CD001E62430F5
:1002A000F77810AE02E44608DEFC70E8D0E02001EA
:1002B0000730E704742D19F7A801D0017A10120253
:1002C000C222E6F760040809DAF8E4F722E66006DD
:1002D0001200880880F722EC2EFCED3FFD22C3ECD3
:1002E0009EFCED9FFD22120305EC8EF0A4F8A9F010
:1002F000EC8FF0A429F9ED8EF0A429FDAC0030D5E7
:100300000312032A22C2D5C004C005AC06AD07ED16
:1003100030E709B2D512032AAE04AF05D005D004E8
:10032000ED30E705B2D512032A22EDF4FDECF424FA
:1003300001FC50010D22C3E69401F608E69400F694
:1003400022BA0104797F8010BA020479BF8009BA09
:100350000304798F800279CFE925F00200BB78FF92
:10036000E4F6D8FD7581477520001200BF740C12A9
:1003700000BB740824401200BB780BE883600612AF
:1003800000880880F60203912004081F080420203A
:1003900000741024401200BB780BE8836006120042
:1003A000880880F60203B02004021F020420200007
:1003B000C2A4C2A312010B1200FF780BE8836006EF
:1003C0001200880880F60203D542454C2053454B65
:1003D0004F4C414800120105780BE883600612007B
:1003E000880880F60203F04F544F4D4154495300A2
:1003F000780212006D12010B12011B74D0120183DE
:10040000E412018312011B74D1120183D3120199EA
:10041000F5F085F034120138E5341201CAF534E5FF
:1004200034B43B028002500302045F12011B74D0FB
:10043000120183E4120183E4120183E4120183E4D4
:100440001201837403120183740112018374011277
:100450000183741312018374101201831201381284
:10046000070B1204B7A2A59204500302047DA281D7
:100470009204500302047A1207950204651204B72D
:10048000753F0175F014E53F120032700302049CC1
:100490001210A2053FE53F6003020483A2A5920467
:1004A00040030204B4A281920450030204B1120773
:1004B0009502049C02045F1200FF12061DA2A59281
:1004C000045003020544780BE88360061200880894
:1004D00080F60204D72C00E532C0E01201D81200E9
:1004E00088D0E01201D9120088780BE883600612E8
:1004F00000880880F60204FA2000E533C0E012010B
:10050000D8120088D0E01201D9120088780BE88355
:1005100060061200880880F602051D2000E534C040
:10052000E01201D8120088D0E01201D912008878B8
:100530000BE88360061200880880F602054120203F
:10054000000205BF780BE88360061200880880F679
:100550000205552C00E532C0E01201D8120088D007
:10056000E01201D9120088780BE883600612008837
:100570000880F60205783A00E533C0E01201D8128F
:100580000088D0E01201D9120088780BE883600659
:100590001200880880F602059B3A00E534C0E0129C
:1005A00001D8120088D0E01201D9120088780BE837
:1005B0008360061200880880F60205BF2020001222
:1005C0000105E538C0E01201D8120088D0E0120120
:1005D000D9120088780BE88360061200880880F63C
:1005E0000205E52F00E539C0E01201D8120088D0DD
:1005F000E01201D9120088780BE8836006120088A7
:100600000880F602060A2F323000E53AC0E01201F7
:10061000D8120088D0E01201D912008822E537B440
:1006200001028003020640780BE88360061200880E
:100630000880F602063D4D494E4747550002070A1D
:10064000E537B402028003020662780BE883600695
:100650001200880880F602065F53454E494E00029C
:10066000070AE537B403028003020685780BE883A6
:1006700060061200880880F602068253454C4153FA
:10068000410002070AE537B4040280030206A67897
:100690000BE88360061200880880F60206A3524128
:1006A00042550002070AE537B4050280030206C876
:1006B000780BE88360061200880880F60206C54BB6
:1006C000414D49530002070AE537B4060280030290
:1006D00006EB780BE88360061200880880F60206B5
:1006E000E84A554D2741540002070AE537B407028E
:1006F000800302070A780BE88360061200880880EE
:10070000F602070A5341425455002212011B74D0CD
:10071000120183E412018312011B74D1120183C3FD
:10072000120199F5F085F034C3120199F5F085F0C6
:1007300033C3120199F5F085F032C3120199F5F037
:1007400085F037C3120199F5F085F038C31201998D
:10075000F5F085F039D3120199F5F085F03A1201E0
:10076000382212011B74D0120183E4120183E53494
:10077000120183E533120183E532120183E537125A
:100780000183E538120183E539120183E53A12014C
:1007900083120138221208F475440112010B120071
:1007A000FFE544B4010280030207D1780BE88360BF
:1007B000061200880880F60207C2534554204A41B9
:1007C0004D00A281920450030207D11208F41209CD
:1007D00054E544B402028003020805780BE8836004
:1007E000061200880880F60207F65345542054414B
:1007F0004E4747414C00A281920450030208051263
:1008000008F4120DCAE544B40302800302083878E4
:100810000BE88360061200880880F6020829534519
:1008200054204A414457414C00A281920450030293
:1008300008381208F4121590E544B404028003024B
:100840000864780BE88360061200880880F60208C6
:10085000584B454C55415200A28192045003020866
:10086000640208DEA2809204500302087512090394
:10087000054412010BA28292045003020887120859
:10088000E578441612010BE544B400028003020827
:1008900097754404020887E544B405028003020802
:1008A000A775440102089779BF75F00312035874C5
:1008B0000112008879BF75F008120358780BE8839D
:1008C00060061200880880F60208CE4F4B0079BF00
:1008D00075F00F120358740212008802079E12016D
:1008E0000B1208F422740A1201B0A282920440038F
:1008F0000208E522740A1201B0A2819204400302A8
:1009000008F422740A1201B0A28092044003020982
:100910000322780BE88360061200880880F602093B
:10092000282020202020200022780BE88360061257
:1009300000880880F602093E20202020200022782E
:100940000BE88360061200880880F6020953202015
:100950002020002212010B12070B1200FF780BE877
:100960008360061200880880F602097453455420FB
:100970004A414D00A28092045003020982120903E9
:100980000537A282920450030209911208E57837D4
:1009900016E537B4000280030209A1753707020982
:1009A00091E537B4080280030209B17537010209E5
:1009B000A1120105A2A592045003020A2DE537B445
:1009C000010280030209CD120912020A2AE537B496
:1009D000020280030209DD120929020A2AE537B45E
:1009E000030280030209ED120912020A2AE537B454
:1009F000040280030209FD12093F020A2AE537B406
:100A000005028003020A0D120929020A2AE537B4F9
:100A100006028003020A1D120912020A2AE537B4EF
:100A200007028003020A2A120929020A3012061D4F
:100A3000780BE88360061200880880F6020A412CD1
:100A400000E532C0E01201D8120088D0E01201D9CE
:100A5000120088780BE88360061200880880F6028E
:100A60000A643A00E533C0E01201D8120088D0E0F1
:100A70001201D9120088780BE883600612008808FA
:100A800080F6020A873A00E534C0E01201D812006D
:100A900088D0E01201D9120088780BE88360061232
:100AA00000880880F6020AAB202000A28192045040
:100AB00003020ABA1208F4020ABD020974E53212EE
:100AC00001CAF532A28092045003020AD21209032D
:100AD0000532A28292045003020AE11208E578323C
:100AE00016E532B4FF028003020AF1753217020ADA
:100AF000E1E532B418028003020B01753200020AEC
:100B0000F1E5321201C2F53212010512061D780B11
:100B1000E88360061200880880F6020B1F2C00A2F2
:100B2000A592045003020B3D780BE8836006120087
:100B3000880880F6020B3A202000020B4FE532C0F5
:100B4000E01201D8120088D0E01201D91200887892
:100B50000BE88360061200880880F6020B603A00FA
:100B6000E533C0E01201D8120088D0E01201D9129A
:100B70000088780BE88360061200880880F6020B74
:100B8000833A00E534C0E01201D8120088D0E012A8
:100B900001D9120088780BE883600612008808806B
:100BA000F6020BA7202000A28192045003020BB68C
:100BB0001208F4020BB9020ABDE5331201CAF5337B
:100BC000A28092045003020BCE1209030533A282C5
:100BD00092045003020BDD1208E5783316E533B4B6
:100BE000FF028003020BED75333B020BDDE533B4EE
:100BF0003C028003020BFD753300020BEDE533125E
:100C000001C2F53312010512061D780BE883600658
:100C10001200880880F6020C1B2C00E532C0E0129E
:100C200001D8120088D0E01201D9120088780BE8B0
:100C30008360061200880880F6020C3E3A00A2A5E6
:100C400092045003020C5C780BE883600612008863
:100C50000880F6020C59202000020C6EE533C0E03B
:100C60001201D8120088D0E01201D9120088780B46
:100C7000E88360061200880880F6020C7F3A00E5DF
:100C800034C0E01201D8120088D0E01201D912005D
:100C900088780BE88360061200880880F6020CA3AF
:100CA000202000A28192045003020CB21208F40228
:100CB0000CB5020BB9E5341201CAF534A2809204D6
:100CC0005003020CCA1209030534A2829204500395
:100CD000020CD91208E5783416E534B4FF0280031B
:100CE000020CE975343B020CD9E534B43C028003B4
:100CF000020CF9753400020CE9E5341201C2F53436
:100D000012010512061D780BE883600612008808A0
:100D100080F6020D172C00E532C0E01201D8120057
:100D200088D0E01201D9120088780BE8836006129F
:100D300000880880F6020D3A3A00E533C0E012015F
:100D4000D8120088D0E01201D9120088780BE8830D
:100D500060061200880880F6020D5D3A00A2A59296
:100D6000045003020D8D780BE8836006120088089A
:100D700080F6020D78202000780BE88360061200D0
:100D8000880880F6020D8A202000020D9FE534C0FD
:100D9000E01201D8120088D0E01201D91200887840
:100DA0000BE88360061200880880F6020DB120204F
:100DB00000A28192045003020DC01208F4020DC378
:100DC000020CB512076212010B2212010B12070B63
:100DD0001200FF780BE88360061200880880F60294
:100DE0000DEE5345542054414E4747414C00E538E1
:100DF0001201CAF538A28092045003020E031209B0
:100E0000030538A28292045003020E121208E578FC
:100E10003816E538B400028003020E2275381F022E
:100E20000E12E538B420028003020E32753801023A
:100E30000E22E5381201C2F538120105A2A592046E
:100E40005003020E5A780BE883600612008808806F
:100E5000F6020E57202000020E6CE538C0E01201A9
:100E6000D8120088D0E01201D9120088780BE883EC
:100E700060061200880880F6020E7D2F00E539C05A
:100E8000E01201D8120088D0E01201D9120088784F
:100E90000BE88360061200880880F6020EA22F324B
:100EA0003000E53AC0E01201D8120088D0E012010B
:100EB000D9120088A28192045003020EC31208F4D2
:100EC000020EC6020DEEE5391201CAF539A2809272
:100ED000045003020EDB1209030539A2829204506A
:100EE00003020EEA1208E5783916E539B4000280EB
:100EF00003020EFA75390C020EEAE539B40D0280D0
:100F000003020F0A753901020EFAE5391201C2F522
:100F100039120105E538C0E01201D8120088D0E08E
:100F20001201D9120088780BE88360061200880845
:100F300080F6020F372F00A2A592045003020F552E
:100F4000780BE88360061200880880F6020F5220B2
:100F50002000020F67E539C0E01201D8120088D0E6
:100F6000E01201D9120088780BE88360061200882D
:100F70000880F6020F7A2F323000E53AC0E0120105
:100F8000D8120088D0E01201D9120088A281920400
:100F90005003020F9B1208F4020F9E020EC6E53AA0
:100FA0001201CAF53AA28092045003020FB312094B
:100FB00003053AA28292045003020FC21208E57898
:100FC0003A16E53AB4FF028003020FD2753A630283
:100FD0000FC2E53AB464028003020FE2753A0002E0
:100FE0000FD2E53A1201C2F53A120105E538C0E028
:100FF0001201D8120088D0E01201D9120088780BB3
:10100000E88360061200880880F602100F2F00E5C2
:1010100039C0E01201D8120088D0E01201D91200C4
:1010200088780BE88360061200880880F602103288
:101030002F00A2A592045003021052780BE883609F
:10104000061200880880F602104F2020202000029F
:101050001076780BE88360061200880880F602108C
:1010600064323000E53AC0E01201D8120088D0E0C6
:101070001201D9120088A281920450030210851235
:1010800008F4021088020F9E12076212010B22124E
:10109000070BAC377D007E647F001202E68C408D2A
:1010A00041221214B71214E212150DE532B53C02BA
:1010B00080030214B6E533B53D0280030214B6E5A1
:1010C0003EB40002800250030214B6D2A4D2A3E5BB
:1010D0003EB4010280030210DF75B0FF0212CCE5BE
:1010E0003EB4020280030210EF75B0DF0212CCE5BD
:1010F0003EB4030280030210FF75B0EF0212CCE58C
:101100003EB40402800302110F75B0CF0212CCE589
:101110003EB40502800302111F75B0F70212CCE540
:101120003EB40602800302112F75B0D70212CCE53F
:101130003EB40702800302113F75B0E70212CCE50E
:101140003EB40802800302114F75B0C70212CCE50D
:101150003EB40902800302115F75B0FB0212CCE5B8
:101160003EB40A02800302116F75B0DB0212CCE5B7
:101170003EB40B02800302117F75B0EB0212CCE586
:101180003EB40C02800302118F75B0CB0212CCE585
:101190003EB40D02800302119F75B0F30212CCE53C
:1011A0003EB40E0280030211AF75B0D30212CCE53B
:1011B0003EB40F0280030211BF75B0E30212CCE50A
:1011C0003EB4100280030211CF75B0C30212CCE509
:1011D0003EB4110280030211DF75B07F0212CCE52C
:1011E0003EB4120280030211EF75B05F0212CCE52B
:1011F0003EB4130280030211FF75B06F0212CCE5FA
:101200003EB41402800302120F75B04F0212CCE5F7
:101210003EB41502800302121F75B0770212CCE5AE
:101220003EB41602800302122F75B0570212CCE5AD
:101230003EB41702800302123F75B0670212CCE57C
:101240003EB41802800302124F75B0470212CCE57B
:101250003EB41902800302125F75B07B0212CCE526
:101260003EB41A02800302126F75B05B0212CCE525
:101270003EB41B02800302127F75B06B0212CCE5F4
:101280003EB41C02800302128F75B04B0212CCE5F3
:101290003EB41D02800302129F75B0730212CCE5AA
:1012A0003EB41E0280030212AF75B0530212CCE5A9
:1012B0003EB41F0280030212BF75B0630212CCE578
:1012C0003EB4200280030212CC75B043C2B674FA59
:1012D0001201B0D2B612010B780BE883600612003F
:1012E000880880F60212EF414C4152414D200078AF
:1012F0003F7A017921D201120273C20178211202D0
:10130000CD780BE88360061200880880F602131778
:1013100020414B5449460075F001E53E12003E6005
:1013200003021329740102132AE4C0E0853EF0741D
:101330001012003E600302133E740102133FE4D01A
:10134000F055F0B401028003021354754214754342
:101350000002147275F011E53E12003E60030213A4
:10136000667401021367E4C0E0853EF07412120057
:101370003E600302137B740102137CE4D0F055F04D
:10138000B40102800302139175421E7543000214DA
:1013900072E53EB4130280030213A47542737543D1
:1013A00000021472E53EB4140280030213B77542C2
:1013B000E1754300021472E53EB415028003021386
:1013C000CA7542F5754300021472E53EB4160280F8
:1013D000030213DD7542AA754300021472E53EB4A0
:1013E000170280030213F07542CD75430002147298
:1013F000E53EB418028003021403754241754300B0
:10140000021472E53EB4190280030214167542C834
:10141000754300021472E53EB41A028003021429D7
:101420007542F5754300021472E53EB41B02800359
:1014300002143C75429B754300021472E53EB41CD5
:1014400002800302144F7542E1754300021472E5F5
:101450003EB41D0280030214627542B97543000256
:101460001472E53EB41E02800302147275420975BF
:101470004301AC42AD437E007F001200487003027E
:1014800014A2A2A59204400302148E021482A2A503
:101490009204500302149A02148E78421203360208
:1014A0001472C2A4C2A3E533B53D0280030214B690
:1014B00012070B0214A62212108FAC40AD417E1E03
:1014C0007F001202DE8C408D41AC40AD41AE3F7FCB
:1014D000001202D78C408D41121535853B3C120716
:1014E0000B2212108FAC40AD417E3C7F001202DE19
:1014F0008C408D41AC40AD41AE3F7F001202D78C95
:10150000408D41121535853B3D12070B2212108F7D
:10151000AC40AD417E5A7F001202DE8C408D41AC62
:1015200040AD41AE3F7F001202D78C408D41121575
:1015300035853B3E22784008E6F535E540F5361224
:10154000011B74A0120183E535120183E5361201F7
:101550008312011B74A1120183D3120199F5F08546
:10156000F03B12013822784008E6F535E540F536C3
:1015700012011B74A0120183E535120183E53612B6
:101580000183E53B120183120138740A1201B02273
:1015900075450175460112010B1200FFE545B408BF
:1015A0000280030215D2780BE883600612008808D7
:1015B00080F60215BD4B454D42414C4900A2819237
:1015C0000450030215CF1208F412010B02172E0269
:1015D00016E8780BE88360061200880880F602158A
:1015E000E94A414457414C2000E545B401028003DB
:1015F00002160C780BE88360061200880880F60259
:1016000016094D494E474755000216D6E545B40226
:1016100002800302162E780BE88360061200880809
:1016200080F602162B53454E494E000216D6E5456C
:10163000B403028003021651780BE883600612009F
:10164000880880F602164E53454C4153410002165D
:10165000D6E545B404028003021672780BE8836075
:10166000061200880880F602166F524142550002A9
:1016700016D6E545B405028003021694780BE8837C
:1016800060061200880880F60216914B414D4953BE
:10169000000216D6E545B4060280030216B7780BA1
:1016A000E88360061200880880F60216B44A554D99
:1016B000274154000216D6E545B4070280030216FE
:1016C000D6780BE88360061200880880F60216D6EA
:1016D000534142545500A281920450030216E8126D
:1016E00008F412010B12172FE545B4000280030223
:1016F00016F87545080216E8E545B40902800302AC
:1017000017087545010216F8A280920450030217CB
:1017100019120903054512010BA28292045003021B
:10172000172B1208E578451612010B021599227540
:101730004601121D00121D34121D681200FFE546FD
:10174000B415028003021774780BE8836006120058
:10175000880880F602175F4B454D42414C4900A274
:1017600081920450030217711208F412010B02193E
:101770002202187FA2A592045003021799780BE861
:101780008360061200880880F60217962020202029
:101790002020202020000217C2780BE88360061268
:1017A00000880880F60217B0414C4152414D20009C
:1017B00078467A017921D201120273C2017821128E
:1017C00002CD120105E53CC0E01201D8120088D01C
:1017D000E01201D9120088780BE8836006120088B5
:1017E0000880F60217E83A00E53DC0E01201D81281
:1017F0000088D0E01201D9120088780BE8836006D7
:101800001200880880F602180C202000E53EB40083
:10181000028003021831780BE88360061200880802
:1018200080F602182E284B4F534F4E4729000218BE
:101830006A780BE88360061200880880F602184672
:101840004C4147552000783E7A017921D20112029D
:1018500073C20178211202CD780BE8836006120072
:10186000880880F602186A202000A28192045003A2
:1018700002187F1208F412010B12192312010BE552
:1018800046B40002800302189275461512010B023D
:10189000187FE546B4160280030218AB75460112A4
:1018A0001D00121D34121D68021892A2809204506D
:1018B000030219041209030546121D00E53CB41782
:1018C00002800250030218D1753C00121D9C121DAB
:1018D00000121D34E53DB43B02800250030218E9BA
:1018E000753D00121DD0121D34121D68E53EB41E58
:1018F0000280025003021901753E00121E04121DDF
:101900006812010BA2829204500302191F1208E50B
:10191000784616121D00121D34121D6812010B02AA
:10192000173B22121D00121D34121D681200FF7891
:101930000BE88360061200880880F6021946414CC5
:101940004152414D200078467A017921D20112029C
:1019500073C20178211202CD120105A2A592045092
:1019600003021979E53CC0E01201D8120088D0E0EA
:101970001201D912008802198B780BE883600612D5
:1019800000880880F602198B202000780BE883601D
:10199000061200880880F602199C3A00E53DC0E076
:1019A0001201D8120088D0E01201D9120088780BF9
:1019B000E88360061200880880F60219C020200023
:1019C000E53EB4000280030219E5780BE883600667
:1019D0001200880880F60219E2284B4F534F4E47F9
:1019E0002900021A0C780BE8836006120088088030
:1019F000F60219FA4C4147552000783E7A017921C8
:101A0000D201120273C20178211202CDE53C12010B
:101A1000CAF53CA28092045003021A24120903055D
:101A20003C12010BA28292045003021A361208E5FE
:101A3000783C1612010BE53CB418028003021A46EA
:101A4000753C00021A36E53CB4FF028003021A56C8
:101A5000753C17021A46E53C1201C2F53CA2819280
:101A6000045003021A72121D9C1208F412010B0298
:101A70001A7502192C1200FF780BE8836006120019
:101A8000880880F6021A8F414C4152414D2000785F
:101A9000467A017921D201120273C2017821120221
:101AA000CD120105E53CC0E01201D8120088D0E05B
:101AB0001201D9120088780BE883600612008808AA
:101AC00080F6021AC73A00A2A592045003021AE552
:101AD000780BE88360061200880880F6021AE2207C
:101AE0002000021AF7E53DC0E01201D8120088D0AC
:101AF000E01201D9120088780BE883600612008892
:101B00000880F6021B09202000E53EB40002800395
:101B1000021B2E780BE88360061200880880F6020C
:101B20001B2B284B4F534F4E472900021B55780B58
:101B3000E88360061200880880F6021B434C414788
:101B4000552000783E7A017921D201120273C20138
:101B500078211202CDE53D1201CAF53DA280920422
:101B60005003021B6D120903053D12010BA2829264
:101B7000045003021B7F1208E5783D1612010BE5A5
:101B80003DB43C028003021B8F753D00021B7FE5C4
:101B90003DB4FF028003021B9F753D3B021B8FE596
:101BA0003D1201C2F53DA28192045003021BBB12FB
:101BB0001DD01208F412010B021BBE021A7512008E
:101BC000FF780BE88360061200880880F6021BD8B5
:101BD000414C4152414D200078467A017921D20191
:101BE000120273C20178211202CD120105E53CC038
:101BF000E01201D8120088D0E01201D912008878D2
:101C00000BE88360061200880880F6021C103A0078
:101C1000E53DC0E01201D8120088D0E01201D912CF
:101C20000088780BE88360061200880880F6021CA2
:101C300034202000A2A592045003021C8CE53EB47F
:101C400000028003021C62780BE8836006120088A1
:101C50000880F6021C5F284B4F534F4E4729000265
:101C60001C89780BE88360061200880880F6021C45
:101C7000774C4147552000783E7A017921D20112F4
:101C80000273C20178211202CD021CA4780BE883F2
:101C900060061200880880F6021CA4202020202064
:101CA00020202000A28092045003021CB5120903D8
:101CB000053E12010BA28292045003021CC71208B7
:101CC000E5783E1612010BE53EB41F028003021CAC
:101CD000D7753E00021CC7E53EB4FF028003021C1C
:101CE000E7753E1E021CD7A28192045003021CFC21
:101CF000121E041208F412010B021CFF021BBE226A
:101D0000AC457D007E647F001202E68C408D41ACC4
:101D100040AD417E1E7F001202DE8C408D41AC4002
:101D2000AD41AE467F001202D78C408D4112153571
:101D3000853B3C22AC457D007E647F001202E68C30
:101D4000408D41AC40AD417E3C7F001202DE8C40B4
:101D50008D41AC40AD41AE467F001202D78C408D24
:101D600041121535853B3D22AC457D007E647F00E8
:101D70001202E68C408D41AC40AD417E5A7F00128C
:101D800002DE8C408D41AC40AD41AE467F00120278
:101D9000D78C408D41121535853B3E22AC457D00E8
:101DA0007E647F001202E68C408D41AC40AD417EE6
:101DB0001E7F001202DE8C408D41AC40AD41AE462C
:101DC0007F001202D78C408D41853C3B1215662264
:101DD000AC457D007E647F001202E68C408D41ACF4
:101DE00040AD417E3C7F001202DE8C408D41AC4014
:101DF000AD41AE467F001202D78C408D41853D3B00
:101E000012156622AC457D007E647F001202E68CCE
:101E1000408D41AC40AD417E5A7F001202DE8C40C5
:101E20008D41AC40AD41AE467F001202D78C408D53
:101E300041853E3B121566220000000000000000B4
:00000001FF
