:03000000020006F5
:20005F0075087E7509FF750A06750B00750C00750D00750E00750F007510007511EFC2013D
:03007F0002000379
:0300030002046A8A
:200082000022120082D281120082C281221081028000D280D281120082C280120082C281F7
:2000A200221081028000C280120082D281120082D28022AF827E00EF339280C007C0061256
:2000C2000084D006D007EF2FFF0EBE080040E8D280120082D281120082A280C2811200820E
:2000E200227F007E00C007C006120082D281120082D006D007A2809200EF2FFDA200E433A2
:20010200FC4DFFC2810EBE080040DA8F8222C280120082120084D28022D280120082120059
:2001220084D2812210980280FB8599822285829910990280FB22AD82AE83AFF08D828E83D6
:200142008FF01204EDFC60188C82C007C006C00512012FD005D006D0070DBD00DF0E80DC70
:2001620022AE82AF83EE4F60107DC88D04EC14FD70F91EBEFF011F80EC22A2029201E43339
:20018200FF8F0C22AD82AE83AFF0AC13EC1204D20DBD00010EAC128D828E838FF0EC1204D7
:2001A200D22285821485831585F0167B007C0079017A00E92514F8EA3515FEAF1688828EF2
:2001C200838FF01204EDF87F002BFBEF3CFC09B900010AC3E99407EA6480948040D5E49BCA
:2001E200F582E49CF5832290000875F0401201A485821285831390000F75F0401201862245
:200202007F00EF2408F98782C00712012FD0070FBF0A0040ED22AF828F0B85171285181310
:2002220090000D75F0401201861201E912020222AF828F0BE4F512F51390000D75F040129B
:2002420001861201E912020222858217858318758203120218227582031202322275820101
:200262001202322275820212023222858217858318758206120218228582178583187582F5
:2002820007120218228582178583187582091202182275820A1202322275820C12023222A7
:2002A20075820D1202322275820E1202322275821612023222AF8274F8C39FFE75827EC0BC
:2002C20007C00612012F7582FF12012F75820612012F75820312012F75820012012F75822A
:2002E2000012012FD006D0078F82C00612012F7582FE12012FD0068E8212012F7582EF129D
:20030200012F22AF828F177518007582031202182275824212023222758243120232227525
:20032200824712023222758248120232227582491202322275824C1202322275824B12023A
:20034200322275824D12023222A203B3E433FF8F17751800758219120218221202B7900041
:200362000A120163D20312034B22A204B3E433FF8F1775180075821A120218227582181282
:20038200023222AF827E00C3EE9F50107CFF7D051CBCFF011DEC4D70F70E80EB22C2A4759E
:2003A2008201120385D2A422E582FF33920592A7EF2FFF33920592A6EF2FFF33920592A5E0
:2003C200EF2FFF33920592A4C00712039FD007EF2FFF33920592A7EF2FFF33920592A6EF7E
:2003E2002FFF33920592A5EF2F3392A412039F75820112038522D2A51203AA22C2A5120309
:20040200AA22AD82AE83AFF08D828E838FF01204EDFC60188C820DBD00010EC007C006C0C5
:20042200051203F8D005D006D00780DC22D2A4C2A57582331203FE7582321203FE75822833
:200442001203FE75820C1203FE7582061203FE7582011203FE75820012038522758921750F
:200462009850758DFDD28E227F04C00712045E9001F41201631202B012029B9001F412014D
:20048200639001F412016390000812026DD007BF5A0050030F80027F019001F4C007120130
:2004A20063D0078F82C0071202B79086A01201639086A01201639086A01201639086A01211
:1004C20001631202B09003E8120163D00780C022D8
:20050D0088EE494C2E1C18CE080CFF117D23254D85813D0105FF117D23254D85813D0105A9
:01052D00FFCE
:06003500E478FFF6D8FD9F
:200013007900E94400601B7A0090052E780175A000E493F2A308B8000205A0D9F4DAF27560
:02003300A0FF2C
:1B04D20020F71130F6138883A88220F509F6A8837583002280FEF280F5F02229
:20003B007800E84400600A790175A000E4F309D8FC7800E84400600C7900900001E4F0A3C3
:04005B00D8FCD9FAFA
:0D000600758120120509E5826003020003E8
:1C04ED0020F71430F6148883A88220F507E6A88375830022E280F7E49322E0221E
:0405090075820022D5
:00000001FF
