:1000000012C0189518951895189518951895189563
:100010001895189518951895189518951895189578
:100020001895189518958FE58DBFC8E3E0E24E2E20
:1000300084E08EBFD4E0F4E05F2EA89584B7082E4C
:10004000877F84BF88E1992781BD91BDEEEFF3E002
:10005000A0E6B0E088278D933197E9F78DE489B960
:1000600080E080BD88E18AB976DA66248CE0BBDA6C
:10007000E8E8F0E088E4B7DA58E0C895802DADDA1A
:1000800031965A95D1F704C02004081F0804202097
:10009000E8EAF0E080E5A7DA58E0C895802D9DDA1F
:1000A00031965A95D1F704C02004021F0204202083
:1000B000C498C39833DA43DAE2E4F8E127DAE2E0FD
:1000C000F0E040DA2BDA6CDB10ED81DB10E07FDB57
:1000D00067DB11ED7CDB98DBA2E6B0E01C936EDB06
:1000E00090916200B1DAA2E6B0E08C9300916200D8
:1000F0000B3310F009F001C016C052DB10ED67DBC6
:1001000010E065DB10E063DB10E061DB10E05FDB3B
:1001100013E05DDB11E05BDB11E059DB13E157DB42
:1001200010E155DB4BDB3DD01FD0C59904C0C19910
:1001300001C0EAD0FACF18D081E080936D00009121
:100140006D00043110F009F008C0FDD3ADE6B0E059
:100150008C918F5F8C9308F4F2CFC59B04C0C1993A
:1001600001C0D2D0FACFDFCFEAD959D0C5991FC08C
:10017000E0E5F8E1CBD980916000A8E0B4E053DA83
:10018000BDD9E2E5F8E1C2D980916100A8E0B4E010
:100190004ADAB4D9E2E5F8E1B9D980916200A8E081
:1001A000B4E041DAABD9E4E5F8E1B0D91EC0E0E54E
:1001B000F8E1ACD980916000A8E0B4E034DA9ED9CF
:1001C000E8E5F8E1A3D980916100A8E0B4E02BDA7A
:1001D00095D9E8E5F8E19AD980916200A8E0B4E009
:1001E00022DA8CD9E4E5F8E191D996D980916600BC
:1001F000A8E0B4E018DA82D9EAE5F8E187D980917D
:100200006700A8E0B4E00FDA79D9ECE5F8E17ED92F
:1002100080916800A8E0B4E006DA70D908950091F2
:100220006500013009F004C0E0E6F8E16FD929C0AB
:10023000023009F004C0E8E6F8E168D922C00330D2
:1002400009F004C0EEE6F8E161D91BC0043009F002
:1002500004C0E6E7F8E15AD914C0053009F004C03B
:10026000ECE7F8E153D90DC0063009F004C0E2E82C
:10027000F8E14CD906C0073009F003C0EAE8F8E11C
:1002800045D908958DDA10EDA2DA10E0A0DA88DA07
:1002900011ED9DDABBDAA2E6B0E01C93B7DAA1E675
:1002A000B0E01C93B3DAA0E6B0E01C93AFDAA5E6A9
:1002B000B0E01C93ABDAA6E6B0E01C93A7DAA7E6A1
:1002C000B0E01C93A1DAA8E6B0E01C9377DA0895B9
:1002D00067DA10ED7CDA10E07ADA1091620077DAF2
:1002E0001091610074DA1091600071DA109165006C
:1002F0006EDA109166006BDA1091670068DA10917F
:10030000680065DA5BDA089572D081E0809372004C
:1003100005D915D900917200013009F007C0E0E954
:10032000F8E1F4D8C19902C062D079D0009172008E
:10033000023009F007C0E8E9F8E1E8D8C19902C045
:1003400056D0F2D100917200033009F007C0E4EA00
:10035000F8E1DCD8C19902C04AD04ED500917200B4
:10036000043009F006C0E0EBF8E1D0D8C19901C033
:1003700035C0C09907C041D0A2E7B0E08C918F5F33
:100380008C93CCD8C29907C02CD080917200815038
:1003900080937200C3D800917200003009F004C04D
:1003A00084E080937200F7CF00917200053009F06D
:1003B00004C081E080937200F7CF8FEB13E0BDD8CB
:1003C00081E00BD98FEB18E0B8D8E8EBF8E19ED8C4
:1003D0008FEB1FE0B2D882E000D99BCF9FD807D027
:1003E00008958AE090E043D9C29BFBCF08958AE04C
:1003F00090E03DD9C19BFBCF08958AE090E037D9CA
:10040000C09BFBCF0895ECEBF8E180D80895E4ECB5
:10041000F8E17CD80895EAECF8E178D808957ED820
:10042000C0DE8DD8E0E9F8E171D8C09906C0E5DFFB
:10043000A5E6B0E08C918F5F8C93C29906C0D1DFA6
:1004400080916500815080936500009165000030C7
:1004500009F004C087E080936500F7CF0091650044
:10046000083009F004C081E080936500F7CF54D8CC
:10047000C59925C000916500013009F002C0C3DFB5
:100480001DC0023009F002C0C2DF18C0033009F0FD
:1004900002C0B9DF13C0043009F002C0BCDF0EC0D7
:1004A000053009F002C0B3DF09C0063009F002C010
:1004B000AADF04C0073009F001C0A9DF01C0AFDE28
:1004C000E0E5F8E123D880916000A8E0B4E0ABD883
:1004D00015D8E8E5F8E11AD880916100A8E0B4E009
:1004E000A2D80CD8E8E5F8E111D880916200A8E024
:1004F000B4E099D803D8E4E5F8E108D8C19902C07E
:1005000076DF01C092CF909160009ED8A0E6B0E067
:100510008C93C09906C071DFA0E6B0E08C918F5F2C
:100520008C93C29906C05DDF8091600081508093FA
:100530006000009160000F3F09F004C087E18093E4
:100540006000F7CF00916000083109F004C080E03E
:1005500080936000F7CF8091600070D8A0E6B0E093
:100560008C93DAD75CDEE0E5F8E1D0D7C59904C01A
:10057000E4E5F8E1CBD706C080916000A8E0B4E0E4
:1005800052D8BCD7E8E5F8E1C1D780916100A8E076
:10059000B4E049D8B3D7E8E5F8E1B8D78091620074
:1005A000A8E0B4E040D8AAD7E4E5F8E1AFD7C19914
:1005B00002C01DDF01C0A7CF9091610045D8A1E620
:1005C000B0E08C93C09906C018DFA1E6B0E08C9132
:1005D0008F5F8C93C29906C004DF809161008150C7
:1005E00080936100009161000F3F09F004C08BE32C
:1005F00080936100F7CF009161000C3309F004C0D3
:1006000080E080936100F7CF8091610017D8A1E668
:10061000B0E08C9381D703DEE0E5F8E177D78091F5
:100620006000A8E0B4E0FFD769D7E8E5F8E16ED74D
:10063000C59904C0E4E5F8E169D706C0809161007E
:10064000A8E0B4E0F0D75AD7E8E5F8E15FD78091A9
:100650006200A8E0B4E0E7D751D7E4E5F8E156D767
:10066000C19902C0C4DE01C0A7CF90916200ECD74F
:10067000A2E6B0E08C93C09906C0BFDEA2E6B0E06F
:100680008C918F5F8C93C29906C0ABDE8091620023
:10069000815080936200009162000F3F09F004C016
:1006A0008BE380936200F7CF009162000C3309F076
:1006B00004C080E080936200F7CF80916200BED7D3
:1006C000A2E6B0E08C9328D7AADDE0E5F8E11ED7DA
:1006D00080916000A8E0B4E0A6D710D7E8E5F8E183
:1006E00015D780916100A8E0B4E09DD707D7E8E571
:1006F000F8E10CD7C59907C0E4E5F8E107D7E4E5D0
:10070000F8E104D706C080916200A8E0B4E08BD77E
:10071000F5D6E4E5F8E1FAD6C19902C068DE01C079
:10072000A4CF3EDDFBD60895F9D63BDD08D7E8E936
:10073000F8E1ECD69091660087D7A6E6B0E08C93FE
:10074000C09906C05ADEA6E6B0E08C918F5F8C930C
:10075000C29906C046DE8091660081508093660093
:1007600000916600003009F004C08FE180936600BC
:10077000F7CF00916600003209F004C081E0809359
:100780006600F7CF8091660059D7A6E6B0E08C935B
:10079000C3D6C59904C0E4E5F8E1B8D606C0809197
:1007A0006600A8E0B4E03FD7A9D6EAE5F8E1AED606
:1007B00080916700A8E0B4E036D7A0D6ECE5F8E178
:1007C000A5D680916800A8E0B4E02DD797D6C1994E
:1007D00002C00DDE01C0AECF9091670035D7A7E60D
:1007E000B0E08C93C09906C008DEA7E6B0E08C911B
:1007F0008F5F8C93C29906C0F4DD809167008150B1
:100800008093670000916700003009F004C08CE01D
:1008100080936700F7CF009167000D3009F004C0A6
:1008200081E080936700F7CF8091670007D7A7E644
:10083000B0E08C9371D680916600A8E0B4E0F3D666
:100840005DD6EAE5F8E162D6C59904C0E4E5F8E1D1
:100850005DD606C080916700A8E0B4E0E4D64ED62D
:10086000ECE5F8E153D680916800A8E0B4E0DBD66F
:1008700045D6C19902C0BBDD01C0AECF90916800E2
:10088000E3D6A8E6B0E08C93C09906C0B6DDA8E632
:10089000B0E08C918F5F8C93C29906C0A2DD8091ED
:1008A0006800815080936800009168000F3F09F054
:1008B00004C083E680936800F7CF00916800043697
:1008C00009F004C080E080936800F7CF8091680051
:1008D000B5D6A8E6B0E08C931FD680916600A8E05C
:1008E000B4E0A1D60BD6EAE5F8E110D68091670016
:1008F000A8E0B4E098D602D6EAE5F8E107D6C599B3
:1009000004C0EAECF8E102D609C0E0EDF8E1FED55A
:1009100080916800A8E0B4E086D6F0D5C19902C005
:1009200066DD01C0ABCF3CDCF9D508953ADCA5E625
:10093000B0E00D91112744E650E0A8D6AEE6B0E055
:100940000D931C930895B6D1D7D1F8D140916A0088
:1009500000916000041709F0ACC140916B00009158
:100960006100041709F0A5C100916C00003010F07F
:1009700009F001C09EC1C49AC39A00916C00013075
:1009800009F003C07FEF72BBB9C0023009F003C0A9
:100990007FED72BBB3C0033009F003C07FEE72BBC2
:1009A000ADC0043009F003C07FEC72BBA7C00530B6
:1009B00009F003C077EF72BBA1C0063009F003C095
:1009C00077ED72BB9BC0073009F003C077EE72BBB6
:1009D00095C0083009F003C077EC72BB8FC00930B6
:1009E00009F003C07BEF72BB89C00A3009F003C075
:1009F0007BED72BB83C00B3009F003C07BEE72BB92
:100A00007DC00C3009F003C07BEC72BB77C00D30A9
:100A100009F003C073EF72BB71C00E3009F003C060
:100A200073ED72BB6BC00F3009F003C073EE72BB85
:100A300065C0003109F003C073EC72BB5FC00131C7
:100A400009F003C07FE772BB59C0023109F003C04F
:100A50007FE572BB53C0033109F003C07FE672BB70
:100A60004DC0043109F003C07FE472BB47C00531BB
:100A700009F003C077E772BB41C0063109F003C03B
:100A800077E572BB3BC0073109F003C077E672BB64
:100A900035C0083109F003C077E472BB2FC00931BB
:100AA00009F003C07BE772BB29C00A3109F003C01B
:100AB0007BE572BB23C00B3109F003C07BE672BB40
:100AC0001DC00C3109F003C07BE472BB17C00D31AF
:100AD00009F003C073E772BB11C00E3109F003C007
:100AE00073E572BB0BC00F3109F003C073E672BB34
:100AF00005C0003209F002C073E472BB96988AEF19
:100B000090E0B5D5969A0AD5E4EDF8E1FFD4A8E0D7
:100B1000B4E0EDE6F0E0E5D5F1D4ECEDF8E1F6D4A3
:100B200000916C00013081E008F480E08F93009127
:100B30006C00003181E010F009F080E09F91892382
:100B4000882309F407C084E190E0A0E7B0E08D932A
:100B50009C9391C000916C00013181E008F480E029
:100B60008F9300916C00023181E010F009F080E079
:100B70009F918923882309F407C08EE190E0A0E7C4
:100B8000B0E08D939C9377C0033109F007C083E7F1
:100B900090E0A0E7B0E08D939C936DC0043109F024
:100BA00007C081EE90E0A0E7B0E08D939C9363C016
:100BB000053109F007C085EF90E0A0E7B0E08D9324
:100BC0009C9359C0063109F007C08AEA90E0A0E77B
:100BD000B0E08D939C934FC0073109F007C08DECB6
:100BE00090E0A0E7B0E08D939C9345C0083109F0F8
:100BF00007C081E490E0A0E7B0E08D939C933BC0F8
:100C0000093109F007C088EC90E0A0E7B0E08D93CF
:100C10009C9331C00A3109F007C085EF90E0A0E74E
:100C2000B0E08D939C9327C00B3109F007C08BE98E
:100C300090E0A0E7B0E08D939C931DC00C3109F0CB
:100C400007C081EE90E0A0E7B0E08D939C9313C0C5
:100C50000D3109F007C089EB90E0A0E7B0E08D937B
:100C60009C9309C00E3109F006C089E091E0A0E72D
:100C7000B0E08D939C93A0E7B0E00D911C91003003
:100C800050E0150709F40AC0C59B01C0FDCFC59906
:100C900001C0FDCFA0E7B0E009D4EDCFC498C39860
:100CA00040916B0000916100041709F002C079DAED
:100CB000F7CF08953BDEAEE6B0E00D911C914EE11A
:100CC00050E0041B150BAEE6B0E00D931C93AEE6AE
:100CD000B0E00D911C91ADE6B0E04D915527040FA9
:100CE000151FAEE6B0E00D931C932BDA80916900DE
:100CF00080936A0056DA089519DEAEE6B0E00D91F1
:100D00001C914CE350E0041B150BAEE6B0E00D93D4
:100D10001C93AEE6B0E00D911C91ADE6B0E04D91B4
:100D20005527040F151FAEE6B0E00D931C9309DAAA
:100D30008091690080936B0034DA0895F7DDAEE6A8
:100D4000B0E00D911C914AE550E0041B150BAEE696
:100D5000B0E00D931C93AEE6B0E00D911C91ADE6B2
:100D6000B0E04D915527040F151FAEE6B0E00D938E
:100D70001C93E7D98091690080936C000895AEE6DA
:100D8000B0E011968C91A3E6B0E08C93AEE6B0E0B3
:100D90008C91A4E6B0E08C9303D510EA18D510919D
:100DA000630015D51091640012D5FAD411EA0FD55D
:100DB0002BD5A9E6B0E01C9301D50895AEE6B0E0CE
:100DC00011968C91A3E6B0E08C93AEE6B0E08C91E6
:100DD000A4E6B0E08C93E4D410EAF9D41091630057
:100DE000F6D410916400F3D410916900F0D4E6D4E5
:100DF0008AE090E03CD4089581E08093730081E024
:100E0000809374008BD39BD300917300083009F05A
:100E100009C0E4EEF8E17AD3C19903C0E8DA7ED3E1
:100E200060C03AC0ECEEF8E171D30091730001307C
:100E300009F004C0E0E6F8E169D329C0023009F006
:100E400004C0E8E6F8E162D322C0033009F004C030
:100E5000EEE6F8E15BD31BC0043009F004C0E6E71E
:100E6000F8E154D314C0053009F004C0ECE7F8E110
:100E70004DD30DC0063009F004C0E2E8F8E146D3D6
:100E800006C0073009F003C0EAE8F8E13FD3C19992
:100E900003C0ADDA43D326D000917300003009F0CF
:100EA00004C088E080937300F7CF0091730009308D
:100EB00009F004C081E080937300F7CFC09907C0A8
:100EC0009CDAA3E7B0E08C918F5F8C9327D3C29913
:100ED00007C087DA809173008150809373001ED31E
:100EE00092CF089581E080937400DED108D232D28F
:100EF00026D300917400053109F009C0E4EEF8E151
:100F000005D3C19903C073DA09D391C03DC0C59917
:100F100004C0E4EFF8E1FAD209C0E4EDF8E1F6D25A
:100F2000A8E0B4E0E4E7F0E0DCD3E8D2F5D28091C9
:100F30006A00A8E0B4E077D3E1D2E8E5F8E1E6D2D0
:100F400080916B00A8E0B4E06ED3D8D2E4E5F8E17C
:100F5000DDD200916C00003009F004C0EEEFF8E142
:100F6000D5D20CC0E8E0F9E1D1D2A8E0B4E0ECE6DB
:100F7000F0E0B7D3C3D2E4E5F8E1C8D2C19904C028
:100F800036DACCD255D0CAD200917400003009F0C4
:100F900005C085E180937400C1D2F6CF0091740042
:100FA000063109F007C081E0809374007DD1A7D19C
:100FB000D1D1F4CFC0992EC020DAA4E7B0E08C9153
:100FC0008F5F8C9371D100916000073110F009F0B0
:100FD00001C005C080E080936000E7D165D18FD16A
:100FE000009161000B3310F009F001C005C080E0F2
:100FF0008093610005D283D1ADD100916C000E3198
:1010000010F009F001C005C080E080936C0023D28D
:10101000A1D184D2C2990AC0E4D9809174008150D0
:101020008093740041D16BD195D178D261CF08956E
:101030003BD165D18FD183D2E4EDF8E167D2A8E04E
:10104000B4E0E4E7F0E04DD359D266D2C59907C0C9
:1010500080916A00A8E0B4E0E6D250D203C0E4E593
:10106000F8E154D2E8E5F8E151D280916B00A8E0B4
:10107000B4E0D9D243D2E4E5F8E148D200916C0063
:10108000003009F004C0EEEFF8E140D209C0E8E01A
:10109000F9E13CD2A8E0B4E0ECE6F0E022D32ED2B5
:1010A00090916A00D1D2AAE6B0E08C93C09907C0B3
:1010B000A4D9AAE6B0E08C918F5F8C932FD2C2990D
:1010C00007C08FD980916A00815080936A0026D230
:1010D00000916A00083109F004C080E080936A0042
:1010E000F7CF00916A000F3F09F004C087E18093B9
:1010F0006A00F7CF80916A00A1D2AAE6B0E08C9393
:10110000C19904C052D173D909D201C094CF17D26A
:10111000E4EDF8E1FBD1A8E0B4E0E4E7F0E0E1D2EF
:10112000EDD1FAD180916A00A8E0B4E07CD2E6D19A
:10113000E8E5F8E1EBD1C59904C0E4E5F8E1E6D1D2
:1011400006C080916B00A8E0B4E06DD2D7D1E4E591
:10115000F8E1DCD100916C00003009F004C0EEEF42
:10116000F8E1D4D109C0E8E0F9E1D0D1A8E0B4E0D9
:10117000ECE6F0E0B6D2C2D190916B0065D2ABE65E
:10118000B0E08C93C09907C038D9ABE6B0E08C9141
:101190008F5F8C93C3D1C29907C023D980916B0014
:1011A000815080936B00BAD100916B000C3309F031
:1011B00004C080E080936B00F7CF00916B000F3F7D
:1011C00009F004C08BE380936B00F7CF80916B0034
:1011D00035D2ABE6B0E08C93C19904C011D107D9E8
:1011E0009DD101C094CFABD1E4EDF8E18FD1A8E05F
:1011F000B4E0E4E7F0E075D281D18ED180916A004D
:10120000A8E0B4E010D27AD1E8E5F8E17FD180918E
:101210006B00A8E0B4E007D271D1E4E5F8E176D143
:10122000C59913C000916C00003009F004C0EEEFC6
:10123000F8E16CD109C0E8E0F9E168D1A8E0B4E0D8
:10124000ECE6F0E04ED25AD103C0EEE0F9E15ED117
:10125000C09907C0D2D8ACE6B0E08C918F5F8C9378
:101260005DD1C29907C0BDD880916C008150809338
:101270006C0054D100916C000F3109F004C080E083
:1012800080936C00F7CF00916C000F3F09F004C011
:101290008EE180936C00F7CFC19904C0DCD0A7D851
:1012A0003DD101C0A0CF0895A3E7B0E00D91112773
:1012B00044E650E0EBD1AEE6B0E00D931C93AEE611
:1012C000B0E00D911C914EE150E0041B150BAEE611
:1012D000B0E00D931C93AEE6B0E00D911C91A4E735
:1012E000B0E04D915527040F151FAEE6B0E00D9309
:1012F0001C9327D78091690080936A000895A3E723
:10130000B0E00D91112744E650E0C0D1AEE6B0E068
:101310000D931C93AEE6B0E00D911C914CE350E0B0
:10132000041B150BAEE6B0E00D931C93AEE6B0E0E7
:101330000D911C91A4E7B0E04D915527040F151FA6
:10134000AEE6B0E00D931C93FCD6809169008093CB
:101350006B000895A3E7B0E00D91112744E650E03B
:1013600095D1AEE6B0E00D931C93AEE6B0E00D91E2
:101370001C914AE550E0041B150BAEE6B0E00D935E
:101380001C93AEE6B0E00D911C91A4E7B0E04D9146
:101390005527040F151FAEE6B0E00D931C93D1D670
:1013A0008091690080936C000895A3E7B0E00D91EF
:1013B000112744E650E06AD1AEE6B0E00D931C93ED
:1013C000AEE6B0E00D911C914EE150E0041B150B10
:1013D000AEE6B0E00D931C93AEE6B0E00D911C912B
:1013E000A4E7B0E04D915527040F151FAEE6B0E01D
:1013F0000D931C9380916A0080936900A1D6089593
:10140000A3E7B0E00D91112744E650E03FD1AEE6EE
:10141000B0E00D931C93AEE6B0E00D911C914CE34F
:1014200050E0041B150BAEE6B0E00D931C93AEE646
:10143000B0E00D911C91A4E7B0E04D915527040F49
:10144000151FAEE6B0E00D931C9380916B00809366
:10145000690076D60895A3E7B0E00D91112744E620
:1014600050E014D1AEE6B0E00D931C93AEE6B0E0D0
:101470000D911C914AE550E0041B150BAEE6B0E05F
:101480000D931C93AEE6B0E00D911C91A4E7B0E083
:101490004D915527040F151FAEE6B0E00D931C9338
:1014A00080916C00809369004BD60895ED91FC917A
:1014B000E150F040FC93EE93089504D0E7D000FC97
:1014C0000CD008950024E89457FF02C009D0689416
:1014D00000F80BD010F80124089502D009D0089527
:1014E000509540954F5F5F4F0895E89417FF08951A
:1014F000009510950F5F1F4F68940895A8E0B4E021
:101500008D91882311F069D0FBCF0895C9D0802D2B
:1015100011F063D0FBCF089580EC65C081E063D00B
:1015200017D080E860C08FE7213039F08FEB223090
:1015300021F08FE8233009F08FEC810F54C080E850
:1015400052D0089588EE93E092D03197D9F708955C
:1015500083E099278CC08AEF90E089D0A79AA69A59
:10156000A59AA49AA19AA09AA89885E090E07FD025
:10157000A998AF98AE98AD9AAC9AA99AEF93FF93B9
:10158000E8E2F1E068D0FF91EF91A9986DD0A99AB7
:10159000EF93FF93E8E2F1E05ED0FF91EF91A9981D
:1015A00063D0A99AEF93FF93E8E2F1E054D0FF9162
:1015B000EF91A99859D0AC98A99AEF93FF93E8E2DC
:1015C000F1E049D0FF91EF91A9984ED088E20BD07D
:1015D0008EE009D086E007D00895A89A829505D0BC
:1015E00004D042D00895A898F9CF859510F4AC9A0C
:1015F00001C0AC98859510F4AD9A01C0AD98859561
:1016000010F4AE9A01C0AE98859510F4AF9A01C05F
:10161000AF98A99AEF93FF93E8E2F1E01CD0FF9115
:10162000EF91A9980895982F82958F70805D8D9382
:101630009F70905D9D9388278C9308954AE0082FB2
:101640009AD00295802B0895892F8F70905110F0B9
:10165000865FFCCF08953197F1F70895689462F89A
:101660000895E89462F8089581E090E000C0EF9357
:10167000FF93EE27E82BE92B31F0E8EBFBE0319705
:10168000F1F70197D1F7FF91EF9108950F92B8010B
:10169000469F8001479F100D569F100D0F90089593
:1016A000C895319600200895000F111F221F331F87
:1016B000089500951095209530950F5F1F4F2F4F7F
:1016C0003F4F0895019110810EC001911191219118
:1016D00030810BC00191108117FF05C03FEF2FEF44
:1016E00004C0008111272227332737FF03C0E1DF21
:1016F0008DE28D93CF93DF93CF92DF92EF92AA2466
:10170000BB24CC24DD24EE2440E2CAE0DD2755E0F2
:1017100093E38881890F87FD9F7083FD907F891BEC
:1017200089935A95A9F7C0DFAA1CBB1CCC1CDD1CF1
:10173000EE1C4A9551F7E894EFE0FF2782910ED016
:10174000EB30E0F71EF068948A2D0CD088278D933B
:10175000EF90DF90CF90DF91CF910895982F8295F1
:1017600001D0892F8F70805D26F0803309F40895B1
:1017700068948D930895FF93881BF9E0001FFA95F4
:1017800011F4FF910895881F841B18F4840F889426
:10179000F5CF0894F3CFC698C798BE98BF98089520
:1017A000BF9ABE9803D0BF9801D0BE9AEF93FF9323
:1017B000EBE0F0E050DFFF91EF910895BF9ABE9A01
:1017C000F5DFBF98B79BFECFF1DFBE98EFCF08944F
:1017D000111F01C0110F69F0BF9A18F40000BE98E4
:1017E00002C0BE9A00C0E2DFBF98B79BFECFDEDF2B
:1017F000F1CFBF9ABE98DADFBF98B79BFECFE894CF
:10180000B699689462F8D2CF089401C08894331FC7
:1018100011E0BF9ABE98CADFBF98B79BFECFC6DF64
:101820008894B6990894111FA0F7BF9A379510F4C1
:10183000BE9801C0BE9ABADFBF98B79BFECFB6DF95
:10184000089542454C204F544F4D41544953000098
:101850002C002000202000003A002F002F32300002
:101860004D494E474755000053454E494E0053459C
:101870004C41534100005241425500004B414D49FB
:1018800053004A554D2741540000534142545500DE
:10189000534554204A414D005345542054414E472E
:1018A00047414C00534554204A414457414C0000A5
:1018B0004B454C55415200004F4B0000202020204A
:1018C00020200000202020202000202020200000B8
:1018D00032300000414C4152414D200020414B54D8
:1018E000494600004B454D42414C49004A4144574E
:1018F000414C200020202020202020202000284BA8
:101900004F534F4E472900004C414755200020209F
:0819100020202020202000000F
:00000001FF
